{
  "address": "0x162A433068F51e18b7d13932F27e66a3f99E6890",
  "abi": [
    {
      "inputs": [
        {
          "internalType": "string",
          "name": "_greeting",
          "type": "string"
        }
      ],
      "stateMutability": "nonpayable",
      "type": "constructor"
    },
    {
      "inputs": [],
      "name": "greet",
      "outputs": [
        {
          "internalType": "string",
          "name": "",
          "type": "string"
        }
      ],
      "stateMutability": "view",
      "type": "function"
    },
    {
      "inputs": [
        {
          "internalType": "string",
          "name": "_greeting",
          "type": "string"
        }
      ],
      "name": "setGreeting",
      "outputs": [],
      "stateMutability": "nonpayable",
      "type": "function"
    }
  ],
  "transactionHash": "0xc3c7f4a4b1529c51a372b0308418aeb36ad16e2c9b7ec16ecc7c29905650f045",
  "args": [
    "Hello!!!!!!!!"
  ],
  "numDeployments": 3,
  "solcInputHash": "dddc0537d168a55d35311a75298d48d9",
  "bytecode": "0x60806040523480156200001157600080fd5b50604051620009b7380380620009b78339810160408190526200003491620002d6565b620000646040518060600160405280602281526020016200099560229139826200008160201b620001c41760201c565b805162000079906000906020840190620000f3565b5050620003bb565b620000ce82826040516024016200009a9291906200034b565b60408051601f198184030181529190526020810180516001600160e01b03908116634b5c427760e01b17909152620000d216565b5050565b80516a636f6e736f6c652e6c6f67602083016000808483855afa5050505050565b82805462000101906200038a565b90600052602060002090601f01602090048101928262000125576000855562000170565b82601f106200014057805160ff191683800117855562000170565b8280016001018555821562000170579182015b828111156200017057825182559160200191906001019062000153565b506200017e92915062000182565b5090565b5b808211156200017e576000815560010162000183565b634e487b7160e01b600052604160045260246000fd5b601f19601f83011681018181106001600160401b0382111715620001d757620001d762000199565b6040525050565b6000620001ea60405190565b9050620001f88282620001af565b919050565b60006001600160401b0382111562000219576200021962000199565b601f19601f83011660200192915050565b60005b83811015620002475781810151838201526020016200022d565b8381111562000257576000848401525b50505050565b6000620002746200026e84620001fd565b620001de565b905082815260208101848484011115620002915762000291600080fd5b6200029e8482856200022a565b509392505050565b600082601f830112620002bc57620002bc600080fd5b8151620002ce8482602086016200025d565b949350505050565b600060208284031215620002ed57620002ed600080fd5b81516001600160401b03811115620003085762000308600080fd5b620002ce84828501620002a6565b600062000321825190565b8084526020840193506200033a8185602086016200022a565b601f01601f19169290920192915050565b604080825281016200035e818562000316565b90508181036020830152620002ce818462000316565b634e487b7160e01b600052602260045260246000fd5b6002810460018216806200039f57607f821691505b60208210811415620003b557620003b562000374565b50919050565b6105ca80620003cb6000396000f3fe608060405234801561001057600080fd5b50600436106100365760003560e01c8063a41368621461003b578063cfae321714610050575b600080fd5b61004e610049366004610412565b61006e565b005b610058610132565b60405161006591906104af565b60405180910390f35b61011b6040518060600160405280602381526020016105726023913960008054610097906104dd565b80601f01602080910402602001604051908101604052809291908181526020018280546100c3906104dd565b80156101105780601f106100e557610100808354040283529160200191610110565b820191906000526020600020905b8154815290600101906020018083116100f357829003601f168201915b505050505083610209565b805161012e906000906020840190610276565b5050565b606060008054610141906104dd565b80601f016020809104026020016040519081016040528092919081815260200182805461016d906104dd565b80156101ba5780601f1061018f576101008083540402835291602001916101ba565b820191906000526020600020905b81548152906001019060200180831161019d57829003601f168201915b5050505050905090565b61012e82826040516024016101da92919061050a565b60408051601f198184030181529190526020810180516001600160e01b0316634b5c427760e01b179052610255565b6102508383836040516024016102219392919061052f565b60408051601f198184030181529190526020810180516001600160e01b0316632ced7cef60e01b179052610255565b505050565b80516a636f6e736f6c652e6c6f67602083016000808483855afa5050505050565b828054610282906104dd565b90600052602060002090601f0160209004810192826102a457600085556102ea565b82601f106102bd57805160ff19168380011785556102ea565b828001600101855582156102ea579182015b828111156102ea5782518255916020019190600101906102cf565b506102f69291506102fa565b5090565b5b808211156102f657600081556001016102fb565b634e487b7160e01b600052604160045260246000fd5b601f19601f830116810181811067ffffffffffffffff8211171561034b5761034b61030f565b6040525050565b600061035d60405190565b90506103698282610325565b919050565b600067ffffffffffffffff8211156103885761038861030f565b601f19601f83011660200192915050565b82818337506000910152565b60006103b86103b38461036e565b610352565b9050828152602081018484840111156103d3576103d3600080fd5b6103de848285610399565b509392505050565b600082601f8301126103fa576103fa600080fd5b813561040a8482602086016103a5565b949350505050565b60006020828403121561042757610427600080fd5b813567ffffffffffffffff81111561044157610441600080fd5b61040a848285016103e6565b60005b83811015610468578181015183820152602001610450565b83811115610477576000848401525b50505050565b6000610487825190565b80845260208401935061049e81856020860161044d565b601f01601f19169290920192915050565b602080825281016104c0818461047d565b9392505050565b634e487b7160e01b600052602260045260246000fd5b6002810460018216806104f157607f821691505b60208210811415610504576105046104c7565b50919050565b6040808252810161051b818561047d565b9050818103602083015261040a818461047d565b60608082528101610540818661047d565b90508181036020830152610554818561047d565b90508181036040830152610568818461047d565b9594505050505056fe4368616e67696e67206772656574696e672066726f6d202725732720746f2027257327a26469706673582212203340bbabbd118185458334d8fa9fbfbb592e0958c58a5f775eee17794945955764736f6c634300080c00334465706c6f79696e67206120477265657465722077697468206772656574696e673a",
  "devdoc": {
    "kind": "dev",
    "methods": {},
    "version": 1
  },
  "userdoc": {
    "kind": "user",
    "methods": {},
    "version": 1
  },
  "storageLayout": {
    "storage": [
      {
        "astId": 1810,
        "contract": "contracts/Greeter.sol:Greeter",
        "label": "greeting",
        "offset": 0,
        "slot": "0",
        "type": "t_string_storage"
      }
    ],
    "types": {
      "t_string_storage": {
        "encoding": "bytes",
        "label": "string",
        "numberOfBytes": "32"
      }
    }
  }
}