{
  "address": "0xA51c1fc2f0D1a1b8494Ed1FE312d7C3a78Ed91C0",
  "abi": [
    {
      "inputs": [
        {
          "internalType": "address",
          "name": "_owner",
          "type": "address"
        },
        {
          "internalType": "string",
          "name": "_vendorName",
          "type": "string"
        }
      ],
      "stateMutability": "nonpayable",
      "type": "constructor"
    },
    {
      "inputs": [
        {
          "internalType": "string",
          "name": "_name",
          "type": "string"
        },
        {
          "internalType": "uint256",
          "name": "_price",
          "type": "uint256"
        },
        {
          "internalType": "uint256",
          "name": "_quantity",
          "type": "uint256"
        }
      ],
      "name": "addProduct",
      "outputs": [],
      "stateMutability": "nonpayable",
      "type": "function"
    },
    {
      "inputs": [],
      "name": "deployer",
      "outputs": [
        {
          "internalType": "address",
          "name": "",
          "type": "address"
        }
      ],
      "stateMutability": "view",
      "type": "function"
    },
    {
      "inputs": [],
      "name": "getOwner",
      "outputs": [
        {
          "internalType": "address",
          "name": "",
          "type": "address"
        }
      ],
      "stateMutability": "view",
      "type": "function"
    },
    {
      "inputs": [
        {
          "internalType": "uint256",
          "name": "_id",
          "type": "uint256"
        }
      ],
      "name": "getPrice",
      "outputs": [
        {
          "internalType": "uint256",
          "name": "",
          "type": "uint256"
        }
      ],
      "stateMutability": "view",
      "type": "function"
    },
    {
      "inputs": [],
      "name": "getProducts",
      "outputs": [
        {
          "components": [
            {
              "internalType": "string",
              "name": "name",
              "type": "string"
            },
            {
              "internalType": "uint256",
              "name": "price",
              "type": "uint256"
            },
            {
              "internalType": "uint256",
              "name": "quantity",
              "type": "uint256"
            },
            {
              "internalType": "uint256",
              "name": "id",
              "type": "uint256"
            }
          ],
          "internalType": "struct Vendor.Product[]",
          "name": "",
          "type": "tuple[]"
        }
      ],
      "stateMutability": "view",
      "type": "function"
    },
    {
      "inputs": [],
      "name": "getVendorName",
      "outputs": [
        {
          "internalType": "string",
          "name": "",
          "type": "string"
        }
      ],
      "stateMutability": "view",
      "type": "function"
    },
    {
      "inputs": [],
      "name": "owner",
      "outputs": [
        {
          "internalType": "address",
          "name": "",
          "type": "address"
        }
      ],
      "stateMutability": "view",
      "type": "function"
    },
    {
      "inputs": [
        {
          "internalType": "uint256",
          "name": "",
          "type": "uint256"
        }
      ],
      "name": "products",
      "outputs": [
        {
          "internalType": "string",
          "name": "name",
          "type": "string"
        },
        {
          "internalType": "uint256",
          "name": "price",
          "type": "uint256"
        },
        {
          "internalType": "uint256",
          "name": "quantity",
          "type": "uint256"
        },
        {
          "internalType": "uint256",
          "name": "id",
          "type": "uint256"
        }
      ],
      "stateMutability": "view",
      "type": "function"
    },
    {
      "inputs": [],
      "name": "vendor_name",
      "outputs": [
        {
          "internalType": "string",
          "name": "",
          "type": "string"
        }
      ],
      "stateMutability": "view",
      "type": "function"
    }
  ],
  "transactionHash": "0x164a1d96b942990bb89e904c07dcdba79f253c2481c177e35e310287c30beba7",
  "args": [],
  "numDeployments": 1,
  "solcInputHash": "47b1db7f3abd8af36b5d2db126478595",
  "bytecode": "0x60806040523480156200001157600080fd5b50604051620012563803806200125683398181016040528101906200003791906200038c565b80600090805190602001906200004f929190620000da565b5081600160006101000a81548173ffffffffffffffffffffffffffffffffffffffff021916908373ffffffffffffffffffffffffffffffffffffffff16021790555033600260006101000a81548173ffffffffffffffffffffffffffffffffffffffff021916908373ffffffffffffffffffffffffffffffffffffffff160217905550505062000457565b828054620000e89062000421565b90600052602060002090601f0160209004810192826200010c576000855562000158565b82601f106200012757805160ff191683800117855562000158565b8280016001018555821562000158579182015b82811115620001575782518255916020019190600101906200013a565b5b5090506200016791906200016b565b5090565b5b80821115620001865760008160009055506001016200016c565b5090565b6000604051905090565b600080fd5b600080fd5b600073ffffffffffffffffffffffffffffffffffffffff82169050919050565b6000620001cb826200019e565b9050919050565b620001dd81620001be565b8114620001e957600080fd5b50565b600081519050620001fd81620001d2565b92915050565b600080fd5b600080fd5b6000601f19601f8301169050919050565b7f4e487b7100000000000000000000000000000000000000000000000000000000600052604160045260246000fd5b62000258826200020d565b810181811067ffffffffffffffff821117156200027a57620002796200021e565b5b80604052505050565b60006200028f6200018a565b90506200029d82826200024d565b919050565b600067ffffffffffffffff821115620002c057620002bf6200021e565b5b620002cb826200020d565b9050602081019050919050565b60005b83811015620002f8578082015181840152602081019050620002db565b8381111562000308576000848401525b50505050565b6000620003256200031f84620002a2565b62000283565b90508281526020810184848401111562000344576200034362000208565b5b62000351848285620002d8565b509392505050565b600082601f83011262000371576200037062000203565b5b8151620003838482602086016200030e565b91505092915050565b60008060408385031215620003a657620003a562000194565b5b6000620003b685828601620001ec565b925050602083015167ffffffffffffffff811115620003da57620003d962000199565b5b620003e88582860162000359565b9150509250929050565b7f4e487b7100000000000000000000000000000000000000000000000000000000600052602260045260246000fd5b600060028204905060018216806200043a57607f821691505b60208210811415620004515762000450620003f2565b5b50919050565b610def80620004676000396000f3fe608060405234801561001057600080fd5b50600436106100935760003560e01c8063893d20e811610066578063893d20e8146101235780638da5cb5b14610141578063c29b2f201461015f578063d5f394881461017d578063e75722301461019b57610093565b8063125b0b341461009857806330523e7e146100b45780637acc0b20146100d257806386ae747014610105575b600080fd5b6100b260048036038101906100ad91906108a3565b6101cb565b005b6100bc61025e565b6040516100c9919061099a565b60405180910390f35b6100ec60048036038101906100e791906109bc565b6102f0565b6040516100fc94939291906109f8565b60405180910390f35b61010d6103a8565b60405161011a919061099a565b60405180910390f35b61012b610436565b6040516101389190610a85565b60405180910390f35b610149610460565b6040516101569190610a85565b60405180910390f35b610167610486565b6040516101749190610c1e565b60405180910390f35b610185610602565b6040516101929190610a85565b60405180910390f35b6101b560048036038101906101b091906109bc565b610628565b6040516101c29190610c40565b60405180910390f35b600360008154809291906101de90610c8a565b919050555060405180608001604052808481526020018381526020018281526020016003548152506004600060035481526020019081526020016000206000820151816000019080519060200190610237929190610648565b50602082015181600101556040820151816002015560608201518160030155905050505050565b60606000805461026d90610d02565b80601f016020809104026020016040519081016040528092919081815260200182805461029990610d02565b80156102e65780601f106102bb576101008083540402835291602001916102e6565b820191906000526020600020905b8154815290600101906020018083116102c957829003601f168201915b5050505050905090565b600460205280600052604060002060009150905080600001805461031390610d02565b80601f016020809104026020016040519081016040528092919081815260200182805461033f90610d02565b801561038c5780601f106103615761010080835404028352916020019161038c565b820191906000526020600020905b81548152906001019060200180831161036f57829003601f168201915b5050505050908060010154908060020154908060030154905084565b600080546103b590610d02565b80601f01602080910402602001604051908101604052809291908181526020018280546103e190610d02565b801561042e5780601f106104035761010080835404028352916020019161042e565b820191906000526020600020905b81548152906001019060200180831161041157829003601f168201915b505050505081565b6000600160009054906101000a900473ffffffffffffffffffffffffffffffffffffffff16905090565b600160009054906101000a900473ffffffffffffffffffffffffffffffffffffffff1681565b6060600060035467ffffffffffffffff8111156104a6576104a5610742565b5b6040519080825280602002602001820160405280156104df57816020015b6104cc6106ce565b8152602001906001900390816104c45790505b50905060005b6003548110156105fa57600460006001836105009190610d34565b815260200190815260200160002060405180608001604052908160008201805461052990610d02565b80601f016020809104026020016040519081016040528092919081815260200182805461055590610d02565b80156105a25780601f10610577576101008083540402835291602001916105a2565b820191906000526020600020905b81548152906001019060200180831161058557829003601f168201915b5050505050815260200160018201548152602001600282015481526020016003820154815250508282815181106105dc576105db610d8a565b5b602002602001018190525080806105f290610c8a565b9150506104e5565b508091505090565b600260009054906101000a900473ffffffffffffffffffffffffffffffffffffffff1681565b600060046000838152602001908152602001600020600101549050919050565b82805461065490610d02565b90600052602060002090601f01602090048101928261067657600085556106bd565b82601f1061068f57805160ff19168380011785556106bd565b828001600101855582156106bd579182015b828111156106bc5782518255916020019190600101906106a1565b5b5090506106ca91906106f6565b5090565b6040518060800160405280606081526020016000815260200160008152602001600081525090565b5b8082111561070f5760008160009055506001016106f7565b5090565b6000604051905090565b600080fd5b600080fd5b600080fd5b600080fd5b6000601f19601f8301169050919050565b7f4e487b7100000000000000000000000000000000000000000000000000000000600052604160045260246000fd5b61077a82610731565b810181811067ffffffffffffffff8211171561079957610798610742565b5b80604052505050565b60006107ac610713565b90506107b88282610771565b919050565b600067ffffffffffffffff8211156107d8576107d7610742565b5b6107e182610731565b9050602081019050919050565b82818337600083830152505050565b600061081061080b846107bd565b6107a2565b90508281526020810184848401111561082c5761082b61072c565b5b6108378482856107ee565b509392505050565b600082601f83011261085457610853610727565b5b81356108648482602086016107fd565b91505092915050565b6000819050919050565b6108808161086d565b811461088b57600080fd5b50565b60008135905061089d81610877565b92915050565b6000806000606084860312156108bc576108bb61071d565b5b600084013567ffffffffffffffff8111156108da576108d9610722565b5b6108e68682870161083f565b93505060206108f78682870161088e565b92505060406109088682870161088e565b9150509250925092565b600081519050919050565b600082825260208201905092915050565b60005b8381101561094c578082015181840152602081019050610931565b8381111561095b576000848401525b50505050565b600061096c82610912565b610976818561091d565b935061098681856020860161092e565b61098f81610731565b840191505092915050565b600060208201905081810360008301526109b48184610961565b905092915050565b6000602082840312156109d2576109d161071d565b5b60006109e08482850161088e565b91505092915050565b6109f28161086d565b82525050565b60006080820190508181036000830152610a128187610961565b9050610a2160208301866109e9565b610a2e60408301856109e9565b610a3b60608301846109e9565b95945050505050565b600073ffffffffffffffffffffffffffffffffffffffff82169050919050565b6000610a6f82610a44565b9050919050565b610a7f81610a64565b82525050565b6000602082019050610a9a6000830184610a76565b92915050565b600081519050919050565b600082825260208201905092915050565b6000819050602082019050919050565b600082825260208201905092915050565b6000610ae882610912565b610af28185610acc565b9350610b0281856020860161092e565b610b0b81610731565b840191505092915050565b610b1f8161086d565b82525050565b60006080830160008301518482036000860152610b428282610add565b9150506020830151610b576020860182610b16565b506040830151610b6a6040860182610b16565b506060830151610b7d6060860182610b16565b508091505092915050565b6000610b948383610b25565b905092915050565b6000602082019050919050565b6000610bb482610aa0565b610bbe8185610aab565b935083602082028501610bd085610abc565b8060005b85811015610c0c5784840389528151610bed8582610b88565b9450610bf883610b9c565b925060208a01995050600181019050610bd4565b50829750879550505050505092915050565b60006020820190508181036000830152610c388184610ba9565b905092915050565b6000602082019050610c5560008301846109e9565b92915050565b7f4e487b7100000000000000000000000000000000000000000000000000000000600052601160045260246000fd5b6000610c958261086d565b91507fffffffffffffffffffffffffffffffffffffffffffffffffffffffffffffffff821415610cc857610cc7610c5b565b5b600182019050919050565b7f4e487b7100000000000000000000000000000000000000000000000000000000600052602260045260246000fd5b60006002820490506001821680610d1a57607f821691505b60208210811415610d2e57610d2d610cd3565b5b50919050565b6000610d3f8261086d565b9150610d4a8361086d565b9250827fffffffffffffffffffffffffffffffffffffffffffffffffffffffffffffffff03821115610d7f57610d7e610c5b565b5b828201905092915050565b7f4e487b7100000000000000000000000000000000000000000000000000000000600052603260045260246000fdfea2646970667358221220430711ccc6b0e52cae2dd1d54298c46b72f3532e4cd53620bad3ebca5840261864736f6c634300080a0033",
  "devdoc": {
    "kind": "dev",
    "methods": {},
    "version": 1
  },
  "userdoc": {
    "kind": "user",
    "methods": {},
    "version": 1
  },
  "storageLayout": {
    "storage": [
      {
        "astId": 51,
        "contract": "contracts/Vendor.sol:Vendor",
        "label": "vendor_name",
        "offset": 0,
        "slot": "0",
        "type": "t_string_storage"
      },
      {
        "astId": 53,
        "contract": "contracts/Vendor.sol:Vendor",
        "label": "owner",
        "offset": 0,
        "slot": "1",
        "type": "t_address"
      },
      {
        "astId": 55,
        "contract": "contracts/Vendor.sol:Vendor",
        "label": "deployer",
        "offset": 0,
        "slot": "2",
        "type": "t_address"
      },
      {
        "astId": 57,
        "contract": "contracts/Vendor.sol:Vendor",
        "label": "totalProducts",
        "offset": 0,
        "slot": "3",
        "type": "t_uint256"
      },
      {
        "astId": 71,
        "contract": "contracts/Vendor.sol:Vendor",
        "label": "products",
        "offset": 0,
        "slot": "4",
        "type": "t_mapping(t_uint256,t_struct(Product)66_storage)"
      }
    ],
    "types": {
      "t_address": {
        "encoding": "inplace",
        "label": "address",
        "numberOfBytes": "20"
      },
      "t_mapping(t_uint256,t_struct(Product)66_storage)": {
        "encoding": "mapping",
        "key": "t_uint256",
        "label": "mapping(uint256 => struct Vendor.Product)",
        "numberOfBytes": "32",
        "value": "t_struct(Product)66_storage"
      },
      "t_string_storage": {
        "encoding": "bytes",
        "label": "string",
        "numberOfBytes": "32"
      },
      "t_struct(Product)66_storage": {
        "encoding": "inplace",
        "label": "struct Vendor.Product",
        "members": [
          {
            "astId": 59,
            "contract": "contracts/Vendor.sol:Vendor",
            "label": "name",
            "offset": 0,
            "slot": "0",
            "type": "t_string_storage"
          },
          {
            "astId": 61,
            "contract": "contracts/Vendor.sol:Vendor",
            "label": "price",
            "offset": 0,
            "slot": "1",
            "type": "t_uint256"
          },
          {
            "astId": 63,
            "contract": "contracts/Vendor.sol:Vendor",
            "label": "quantity",
            "offset": 0,
            "slot": "2",
            "type": "t_uint256"
          },
          {
            "astId": 65,
            "contract": "contracts/Vendor.sol:Vendor",
            "label": "id",
            "offset": 0,
            "slot": "3",
            "type": "t_uint256"
          }
        ],
        "numberOfBytes": "128"
      },
      "t_uint256": {
        "encoding": "inplace",
        "label": "uint256",
        "numberOfBytes": "32"
      }
    }
  }
}