{
  "address": "0x9A676e781A523b5d0C0e43731313A708CB607508",
  "abi": [
    {
      "inputs": [
        {
          "internalType": "address",
          "name": "_owner",
          "type": "address"
        },
        {
          "internalType": "string",
          "name": "_vendorName",
          "type": "string"
        }
      ],
      "stateMutability": "nonpayable",
      "type": "constructor"
    },
    {
      "anonymous": false,
      "inputs": [
        {
          "indexed": false,
          "internalType": "string",
          "name": "name",
          "type": "string"
        },
        {
          "indexed": false,
          "internalType": "uint256",
          "name": "price",
          "type": "uint256"
        },
        {
          "indexed": false,
          "internalType": "uint256",
          "name": "quantity",
          "type": "uint256"
        },
        {
          "indexed": false,
          "internalType": "uint256",
          "name": "id",
          "type": "uint256"
        }
      ],
      "name": "ProductAdded",
      "type": "event"
    },
    {
      "inputs": [
        {
          "internalType": "string",
          "name": "_name",
          "type": "string"
        },
        {
          "internalType": "uint256",
          "name": "_price",
          "type": "uint256"
        },
        {
          "internalType": "uint256",
          "name": "_quantity",
          "type": "uint256"
        }
      ],
      "name": "addProduct",
      "outputs": [],
      "stateMutability": "nonpayable",
      "type": "function"
    },
    {
      "inputs": [],
      "name": "deployer",
      "outputs": [
        {
          "internalType": "address",
          "name": "",
          "type": "address"
        }
      ],
      "stateMutability": "view",
      "type": "function"
    },
    {
      "inputs": [],
      "name": "getOwner",
      "outputs": [
        {
          "internalType": "address",
          "name": "",
          "type": "address"
        }
      ],
      "stateMutability": "view",
      "type": "function"
    },
    {
      "inputs": [
        {
          "internalType": "uint256",
          "name": "_id",
          "type": "uint256"
        }
      ],
      "name": "getPrice",
      "outputs": [
        {
          "internalType": "uint256",
          "name": "",
          "type": "uint256"
        }
      ],
      "stateMutability": "view",
      "type": "function"
    },
    {
      "inputs": [],
      "name": "getProducts",
      "outputs": [
        {
          "components": [
            {
              "internalType": "string",
              "name": "name",
              "type": "string"
            },
            {
              "internalType": "uint256",
              "name": "price",
              "type": "uint256"
            },
            {
              "internalType": "uint256",
              "name": "quantity",
              "type": "uint256"
            },
            {
              "internalType": "uint256",
              "name": "id",
              "type": "uint256"
            }
          ],
          "internalType": "struct Vendor.Product[]",
          "name": "",
          "type": "tuple[]"
        }
      ],
      "stateMutability": "view",
      "type": "function"
    },
    {
      "inputs": [],
      "name": "getVendorName",
      "outputs": [
        {
          "internalType": "string",
          "name": "",
          "type": "string"
        }
      ],
      "stateMutability": "view",
      "type": "function"
    },
    {
      "inputs": [],
      "name": "owner",
      "outputs": [
        {
          "internalType": "address",
          "name": "",
          "type": "address"
        }
      ],
      "stateMutability": "view",
      "type": "function"
    },
    {
      "inputs": [
        {
          "internalType": "uint256",
          "name": "",
          "type": "uint256"
        }
      ],
      "name": "products",
      "outputs": [
        {
          "internalType": "string",
          "name": "name",
          "type": "string"
        },
        {
          "internalType": "uint256",
          "name": "price",
          "type": "uint256"
        },
        {
          "internalType": "uint256",
          "name": "quantity",
          "type": "uint256"
        },
        {
          "internalType": "uint256",
          "name": "id",
          "type": "uint256"
        }
      ],
      "stateMutability": "view",
      "type": "function"
    },
    {
      "inputs": [],
      "name": "vendor_name",
      "outputs": [
        {
          "internalType": "string",
          "name": "",
          "type": "string"
        }
      ],
      "stateMutability": "view",
      "type": "function"
    }
  ],
  "transactionHash": "0x7bc79fa04dcdf6011427306ba362e55849653079fd30afcf7e79c28848dc20dc",
  "args": [],
  "numDeployments": 2,
  "solcInputHash": "d7d632accfb99788decba073be93ae73",
  "bytecode": "0x60806040523480156200001157600080fd5b50604051620012953803806200129583398181016040528101906200003791906200038c565b80600090805190602001906200004f929190620000da565b5081600160006101000a81548173ffffffffffffffffffffffffffffffffffffffff021916908373ffffffffffffffffffffffffffffffffffffffff16021790555033600260006101000a81548173ffffffffffffffffffffffffffffffffffffffff021916908373ffffffffffffffffffffffffffffffffffffffff160217905550505062000457565b828054620000e89062000421565b90600052602060002090601f0160209004810192826200010c576000855562000158565b82601f106200012757805160ff191683800117855562000158565b8280016001018555821562000158579182015b82811115620001575782518255916020019190600101906200013a565b5b5090506200016791906200016b565b5090565b5b80821115620001865760008160009055506001016200016c565b5090565b6000604051905090565b600080fd5b600080fd5b600073ffffffffffffffffffffffffffffffffffffffff82169050919050565b6000620001cb826200019e565b9050919050565b620001dd81620001be565b8114620001e957600080fd5b50565b600081519050620001fd81620001d2565b92915050565b600080fd5b600080fd5b6000601f19601f8301169050919050565b7f4e487b7100000000000000000000000000000000000000000000000000000000600052604160045260246000fd5b62000258826200020d565b810181811067ffffffffffffffff821117156200027a57620002796200021e565b5b80604052505050565b60006200028f6200018a565b90506200029d82826200024d565b919050565b600067ffffffffffffffff821115620002c057620002bf6200021e565b5b620002cb826200020d565b9050602081019050919050565b60005b83811015620002f8578082015181840152602081019050620002db565b8381111562000308576000848401525b50505050565b6000620003256200031f84620002a2565b62000283565b90508281526020810184848401111562000344576200034362000208565b5b62000351848285620002d8565b509392505050565b600082601f83011262000371576200037062000203565b5b8151620003838482602086016200030e565b91505092915050565b60008060408385031215620003a657620003a562000194565b5b6000620003b685828601620001ec565b925050602083015167ffffffffffffffff811115620003da57620003d962000199565b5b620003e88582860162000359565b9150509250929050565b7f4e487b7100000000000000000000000000000000000000000000000000000000600052602260045260246000fd5b600060028204905060018216806200043a57607f821691505b60208210811415620004515762000450620003f2565b5b50919050565b610e2e80620004676000396000f3fe608060405234801561001057600080fd5b50600436106100935760003560e01c8063893d20e811610066578063893d20e8146101235780638da5cb5b14610141578063c29b2f201461015f578063d5f394881461017d578063e75722301461019b57610093565b8063125b0b341461009857806330523e7e146100b45780637acc0b20146100d257806386ae747014610105575b600080fd5b6100b260048036038101906100ad91906108e2565b6101cb565b005b6100bc61029d565b6040516100c991906109d9565b60405180910390f35b6100ec60048036038101906100e791906109fb565b61032f565b6040516100fc9493929190610a37565b60405180910390f35b61010d6103e7565b60405161011a91906109d9565b60405180910390f35b61012b610475565b6040516101389190610ac4565b60405180910390f35b61014961049f565b6040516101569190610ac4565b60405180910390f35b6101676104c5565b6040516101749190610c5d565b60405180910390f35b610185610641565b6040516101929190610ac4565b60405180910390f35b6101b560048036038101906101b091906109fb565b610667565b6040516101c29190610c7f565b60405180910390f35b600360008154809291906101de90610cc9565b919050555060405180608001604052808481526020018381526020018281526020016003548152506004600060035481526020019081526020016000206000820151816000019080519060200190610237929190610687565b506020820151816001015560408201518160020155606082015181600301559050507f9ddd3dd44e5393e7babcc1912d120d2d687d9b6402bce4423d9b050281b4f3658383836003546040516102909493929190610a37565b60405180910390a1505050565b6060600080546102ac90610d41565b80601f01602080910402602001604051908101604052809291908181526020018280546102d890610d41565b80156103255780601f106102fa57610100808354040283529160200191610325565b820191906000526020600020905b81548152906001019060200180831161030857829003601f168201915b5050505050905090565b600460205280600052604060002060009150905080600001805461035290610d41565b80601f016020809104026020016040519081016040528092919081815260200182805461037e90610d41565b80156103cb5780601f106103a0576101008083540402835291602001916103cb565b820191906000526020600020905b8154815290600101906020018083116103ae57829003601f168201915b5050505050908060010154908060020154908060030154905084565b600080546103f490610d41565b80601f016020809104026020016040519081016040528092919081815260200182805461042090610d41565b801561046d5780601f106104425761010080835404028352916020019161046d565b820191906000526020600020905b81548152906001019060200180831161045057829003601f168201915b505050505081565b6000600160009054906101000a900473ffffffffffffffffffffffffffffffffffffffff16905090565b600160009054906101000a900473ffffffffffffffffffffffffffffffffffffffff1681565b6060600060035467ffffffffffffffff8111156104e5576104e4610781565b5b60405190808252806020026020018201604052801561051e57816020015b61050b61070d565b8152602001906001900390816105035790505b50905060005b600354811015610639576004600060018361053f9190610d73565b815260200190815260200160002060405180608001604052908160008201805461056890610d41565b80601f016020809104026020016040519081016040528092919081815260200182805461059490610d41565b80156105e15780601f106105b6576101008083540402835291602001916105e1565b820191906000526020600020905b8154815290600101906020018083116105c457829003601f168201915b50505050508152602001600182015481526020016002820154815260200160038201548152505082828151811061061b5761061a610dc9565b5b6020026020010181905250808061063190610cc9565b915050610524565b508091505090565b600260009054906101000a900473ffffffffffffffffffffffffffffffffffffffff1681565b600060046000838152602001908152602001600020600101549050919050565b82805461069390610d41565b90600052602060002090601f0160209004810192826106b557600085556106fc565b82601f106106ce57805160ff19168380011785556106fc565b828001600101855582156106fc579182015b828111156106fb5782518255916020019190600101906106e0565b5b5090506107099190610735565b5090565b6040518060800160405280606081526020016000815260200160008152602001600081525090565b5b8082111561074e576000816000905550600101610736565b5090565b6000604051905090565b600080fd5b600080fd5b600080fd5b600080fd5b6000601f19601f8301169050919050565b7f4e487b7100000000000000000000000000000000000000000000000000000000600052604160045260246000fd5b6107b982610770565b810181811067ffffffffffffffff821117156107d8576107d7610781565b5b80604052505050565b60006107eb610752565b90506107f782826107b0565b919050565b600067ffffffffffffffff82111561081757610816610781565b5b61082082610770565b9050602081019050919050565b82818337600083830152505050565b600061084f61084a846107fc565b6107e1565b90508281526020810184848401111561086b5761086a61076b565b5b61087684828561082d565b509392505050565b600082601f83011261089357610892610766565b5b81356108a384826020860161083c565b91505092915050565b6000819050919050565b6108bf816108ac565b81146108ca57600080fd5b50565b6000813590506108dc816108b6565b92915050565b6000806000606084860312156108fb576108fa61075c565b5b600084013567ffffffffffffffff81111561091957610918610761565b5b6109258682870161087e565b9350506020610936868287016108cd565b9250506040610947868287016108cd565b9150509250925092565b600081519050919050565b600082825260208201905092915050565b60005b8381101561098b578082015181840152602081019050610970565b8381111561099a576000848401525b50505050565b60006109ab82610951565b6109b5818561095c565b93506109c581856020860161096d565b6109ce81610770565b840191505092915050565b600060208201905081810360008301526109f381846109a0565b905092915050565b600060208284031215610a1157610a1061075c565b5b6000610a1f848285016108cd565b91505092915050565b610a31816108ac565b82525050565b60006080820190508181036000830152610a5181876109a0565b9050610a606020830186610a28565b610a6d6040830185610a28565b610a7a6060830184610a28565b95945050505050565b600073ffffffffffffffffffffffffffffffffffffffff82169050919050565b6000610aae82610a83565b9050919050565b610abe81610aa3565b82525050565b6000602082019050610ad96000830184610ab5565b92915050565b600081519050919050565b600082825260208201905092915050565b6000819050602082019050919050565b600082825260208201905092915050565b6000610b2782610951565b610b318185610b0b565b9350610b4181856020860161096d565b610b4a81610770565b840191505092915050565b610b5e816108ac565b82525050565b60006080830160008301518482036000860152610b818282610b1c565b9150506020830151610b966020860182610b55565b506040830151610ba96040860182610b55565b506060830151610bbc6060860182610b55565b508091505092915050565b6000610bd38383610b64565b905092915050565b6000602082019050919050565b6000610bf382610adf565b610bfd8185610aea565b935083602082028501610c0f85610afb565b8060005b85811015610c4b5784840389528151610c2c8582610bc7565b9450610c3783610bdb565b925060208a01995050600181019050610c13565b50829750879550505050505092915050565b60006020820190508181036000830152610c778184610be8565b905092915050565b6000602082019050610c946000830184610a28565b92915050565b7f4e487b7100000000000000000000000000000000000000000000000000000000600052601160045260246000fd5b6000610cd4826108ac565b91507fffffffffffffffffffffffffffffffffffffffffffffffffffffffffffffffff821415610d0757610d06610c9a565b5b600182019050919050565b7f4e487b7100000000000000000000000000000000000000000000000000000000600052602260045260246000fd5b60006002820490506001821680610d5957607f821691505b60208210811415610d6d57610d6c610d12565b5b50919050565b6000610d7e826108ac565b9150610d89836108ac565b9250827fffffffffffffffffffffffffffffffffffffffffffffffffffffffffffffffff03821115610dbe57610dbd610c9a565b5b828201905092915050565b7f4e487b7100000000000000000000000000000000000000000000000000000000600052603260045260246000fdfea2646970667358221220b2e3fd07c2b7f6c1f5e5b64271b0e1de26806e44c5e62912a6f55a09c345952164736f6c634300080a0033",
  "devdoc": {
    "kind": "dev",
    "methods": {},
    "version": 1
  },
  "userdoc": {
    "kind": "user",
    "methods": {},
    "version": 1
  },
  "storageLayout": {
    "storage": [
      {
        "astId": 2,
        "contract": "contracts/Vendor.sol:Vendor",
        "label": "vendor_name",
        "offset": 0,
        "slot": "0",
        "type": "t_string_storage"
      },
      {
        "astId": 4,
        "contract": "contracts/Vendor.sol:Vendor",
        "label": "owner",
        "offset": 0,
        "slot": "1",
        "type": "t_address"
      },
      {
        "astId": 6,
        "contract": "contracts/Vendor.sol:Vendor",
        "label": "deployer",
        "offset": 0,
        "slot": "2",
        "type": "t_address"
      },
      {
        "astId": 8,
        "contract": "contracts/Vendor.sol:Vendor",
        "label": "totalProducts",
        "offset": 0,
        "slot": "3",
        "type": "t_uint256"
      },
      {
        "astId": 22,
        "contract": "contracts/Vendor.sol:Vendor",
        "label": "products",
        "offset": 0,
        "slot": "4",
        "type": "t_mapping(t_uint256,t_struct(Product)17_storage)"
      }
    ],
    "types": {
      "t_address": {
        "encoding": "inplace",
        "label": "address",
        "numberOfBytes": "20"
      },
      "t_mapping(t_uint256,t_struct(Product)17_storage)": {
        "encoding": "mapping",
        "key": "t_uint256",
        "label": "mapping(uint256 => struct Vendor.Product)",
        "numberOfBytes": "32",
        "value": "t_struct(Product)17_storage"
      },
      "t_string_storage": {
        "encoding": "bytes",
        "label": "string",
        "numberOfBytes": "32"
      },
      "t_struct(Product)17_storage": {
        "encoding": "inplace",
        "label": "struct Vendor.Product",
        "members": [
          {
            "astId": 10,
            "contract": "contracts/Vendor.sol:Vendor",
            "label": "name",
            "offset": 0,
            "slot": "0",
            "type": "t_string_storage"
          },
          {
            "astId": 12,
            "contract": "contracts/Vendor.sol:Vendor",
            "label": "price",
            "offset": 0,
            "slot": "1",
            "type": "t_uint256"
          },
          {
            "astId": 14,
            "contract": "contracts/Vendor.sol:Vendor",
            "label": "quantity",
            "offset": 0,
            "slot": "2",
            "type": "t_uint256"
          },
          {
            "astId": 16,
            "contract": "contracts/Vendor.sol:Vendor",
            "label": "id",
            "offset": 0,
            "slot": "3",
            "type": "t_uint256"
          }
        ],
        "numberOfBytes": "128"
      },
      "t_uint256": {
        "encoding": "inplace",
        "label": "uint256",
        "numberOfBytes": "32"
      }
    }
  }
}