{
  "address": "0x70e0bA845a1A0F2DA3359C97E0285013525FFC49",
  "abi": [
    {
      "inputs": [
        {
          "internalType": "address",
          "name": "_owner",
          "type": "address"
        },
        {
          "internalType": "string",
          "name": "_vendorName",
          "type": "string"
        }
      ],
      "stateMutability": "nonpayable",
      "type": "constructor"
    },
    {
      "anonymous": false,
      "inputs": [
        {
          "indexed": true,
          "internalType": "address",
          "name": "owner",
          "type": "address"
        },
        {
          "indexed": true,
          "internalType": "address",
          "name": "approved",
          "type": "address"
        },
        {
          "indexed": true,
          "internalType": "uint256",
          "name": "tokenId",
          "type": "uint256"
        }
      ],
      "name": "Approval",
      "type": "event"
    },
    {
      "anonymous": false,
      "inputs": [
        {
          "indexed": true,
          "internalType": "address",
          "name": "owner",
          "type": "address"
        },
        {
          "indexed": true,
          "internalType": "address",
          "name": "operator",
          "type": "address"
        },
        {
          "indexed": false,
          "internalType": "bool",
          "name": "approved",
          "type": "bool"
        }
      ],
      "name": "ApprovalForAll",
      "type": "event"
    },
    {
      "anonymous": false,
      "inputs": [
        {
          "indexed": false,
          "internalType": "string",
          "name": "name",
          "type": "string"
        },
        {
          "indexed": false,
          "internalType": "uint256",
          "name": "price",
          "type": "uint256"
        },
        {
          "indexed": false,
          "internalType": "string",
          "name": "image",
          "type": "string"
        },
        {
          "indexed": false,
          "internalType": "uint256",
          "name": "quantity",
          "type": "uint256"
        },
        {
          "indexed": false,
          "internalType": "uint256",
          "name": "id",
          "type": "uint256"
        }
      ],
      "name": "ProductAdded",
      "type": "event"
    },
    {
      "anonymous": false,
      "inputs": [
        {
          "indexed": false,
          "internalType": "string",
          "name": "name",
          "type": "string"
        },
        {
          "indexed": false,
          "internalType": "uint256",
          "name": "price",
          "type": "uint256"
        },
        {
          "indexed": false,
          "internalType": "string",
          "name": "image",
          "type": "string"
        },
        {
          "indexed": false,
          "internalType": "uint256",
          "name": "quantity",
          "type": "uint256"
        },
        {
          "indexed": false,
          "internalType": "uint256",
          "name": "id",
          "type": "uint256"
        }
      ],
      "name": "ProductAddedToCart",
      "type": "event"
    },
    {
      "anonymous": false,
      "inputs": [
        {
          "indexed": false,
          "internalType": "string",
          "name": "name",
          "type": "string"
        },
        {
          "indexed": false,
          "internalType": "uint256",
          "name": "price",
          "type": "uint256"
        },
        {
          "indexed": false,
          "internalType": "string",
          "name": "image",
          "type": "string"
        },
        {
          "indexed": false,
          "internalType": "uint256",
          "name": "quantity",
          "type": "uint256"
        },
        {
          "indexed": false,
          "internalType": "uint256",
          "name": "id",
          "type": "uint256"
        }
      ],
      "name": "ProductPurchased",
      "type": "event"
    },
    {
      "anonymous": false,
      "inputs": [
        {
          "indexed": true,
          "internalType": "address",
          "name": "from",
          "type": "address"
        },
        {
          "indexed": true,
          "internalType": "address",
          "name": "to",
          "type": "address"
        },
        {
          "indexed": true,
          "internalType": "uint256",
          "name": "tokenId",
          "type": "uint256"
        }
      ],
      "name": "Transfer",
      "type": "event"
    },
    {
      "inputs": [
        {
          "internalType": "string",
          "name": "_name",
          "type": "string"
        },
        {
          "internalType": "uint256",
          "name": "_price",
          "type": "uint256"
        },
        {
          "internalType": "string",
          "name": "_image",
          "type": "string"
        },
        {
          "internalType": "uint256",
          "name": "_quantity",
          "type": "uint256"
        }
      ],
      "name": "addProduct",
      "outputs": [],
      "stateMutability": "nonpayable",
      "type": "function"
    },
    {
      "inputs": [
        {
          "internalType": "uint256",
          "name": "_id",
          "type": "uint256"
        }
      ],
      "name": "addProductToCart",
      "outputs": [],
      "stateMutability": "nonpayable",
      "type": "function"
    },
    {
      "inputs": [
        {
          "internalType": "address",
          "name": "to",
          "type": "address"
        },
        {
          "internalType": "uint256",
          "name": "tokenId",
          "type": "uint256"
        }
      ],
      "name": "approve",
      "outputs": [],
      "stateMutability": "nonpayable",
      "type": "function"
    },
    {
      "inputs": [
        {
          "internalType": "address",
          "name": "owner",
          "type": "address"
        }
      ],
      "name": "balanceOf",
      "outputs": [
        {
          "internalType": "uint256",
          "name": "",
          "type": "uint256"
        }
      ],
      "stateMutability": "view",
      "type": "function"
    },
    {
      "inputs": [],
      "name": "deployer",
      "outputs": [
        {
          "internalType": "address",
          "name": "",
          "type": "address"
        }
      ],
      "stateMutability": "view",
      "type": "function"
    },
    {
      "inputs": [
        {
          "internalType": "uint256",
          "name": "tokenId",
          "type": "uint256"
        }
      ],
      "name": "getApproved",
      "outputs": [
        {
          "internalType": "address",
          "name": "",
          "type": "address"
        }
      ],
      "stateMutability": "view",
      "type": "function"
    },
    {
      "inputs": [
        {
          "internalType": "uint256",
          "name": "_id",
          "type": "uint256"
        }
      ],
      "name": "getCartProductFromListOfProducts",
      "outputs": [
        {
          "components": [
            {
              "internalType": "string",
              "name": "name",
              "type": "string"
            },
            {
              "internalType": "uint256",
              "name": "price",
              "type": "uint256"
            },
            {
              "internalType": "string",
              "name": "image",
              "type": "string"
            },
            {
              "internalType": "uint256",
              "name": "quantity",
              "type": "uint256"
            },
            {
              "internalType": "uint256",
              "name": "id",
              "type": "uint256"
            }
          ],
          "internalType": "struct Vendor.Product",
          "name": "",
          "type": "tuple"
        }
      ],
      "stateMutability": "view",
      "type": "function"
    },
    {
      "inputs": [],
      "name": "getOwner",
      "outputs": [
        {
          "internalType": "address",
          "name": "",
          "type": "address"
        }
      ],
      "stateMutability": "view",
      "type": "function"
    },
    {
      "inputs": [
        {
          "internalType": "uint256",
          "name": "_id",
          "type": "uint256"
        }
      ],
      "name": "getPrice",
      "outputs": [
        {
          "internalType": "uint256",
          "name": "",
          "type": "uint256"
        }
      ],
      "stateMutability": "view",
      "type": "function"
    },
    {
      "inputs": [],
      "name": "getProducts",
      "outputs": [
        {
          "components": [
            {
              "internalType": "string",
              "name": "name",
              "type": "string"
            },
            {
              "internalType": "uint256",
              "name": "price",
              "type": "uint256"
            },
            {
              "internalType": "string",
              "name": "image",
              "type": "string"
            },
            {
              "internalType": "uint256",
              "name": "quantity",
              "type": "uint256"
            },
            {
              "internalType": "uint256",
              "name": "id",
              "type": "uint256"
            }
          ],
          "internalType": "struct Vendor.Product[]",
          "name": "",
          "type": "tuple[]"
        }
      ],
      "stateMutability": "view",
      "type": "function"
    },
    {
      "inputs": [],
      "name": "getProductsInCart",
      "outputs": [
        {
          "internalType": "uint256[]",
          "name": "",
          "type": "uint256[]"
        }
      ],
      "stateMutability": "view",
      "type": "function"
    },
    {
      "inputs": [],
      "name": "getTotalPrice",
      "outputs": [
        {
          "internalType": "uint256",
          "name": "",
          "type": "uint256"
        }
      ],
      "stateMutability": "view",
      "type": "function"
    },
    {
      "inputs": [],
      "name": "getVendorName",
      "outputs": [
        {
          "internalType": "string",
          "name": "",
          "type": "string"
        }
      ],
      "stateMutability": "view",
      "type": "function"
    },
    {
      "inputs": [
        {
          "internalType": "address",
          "name": "owner",
          "type": "address"
        },
        {
          "internalType": "address",
          "name": "operator",
          "type": "address"
        }
      ],
      "name": "isApprovedForAll",
      "outputs": [
        {
          "internalType": "bool",
          "name": "",
          "type": "bool"
        }
      ],
      "stateMutability": "view",
      "type": "function"
    },
    {
      "inputs": [],
      "name": "makeAnEpicNFT",
      "outputs": [],
      "stateMutability": "nonpayable",
      "type": "function"
    },
    {
      "inputs": [],
      "name": "name",
      "outputs": [
        {
          "internalType": "string",
          "name": "",
          "type": "string"
        }
      ],
      "stateMutability": "view",
      "type": "function"
    },
    {
      "inputs": [],
      "name": "owner",
      "outputs": [
        {
          "internalType": "address",
          "name": "",
          "type": "address"
        }
      ],
      "stateMutability": "view",
      "type": "function"
    },
    {
      "inputs": [
        {
          "internalType": "uint256",
          "name": "tokenId",
          "type": "uint256"
        }
      ],
      "name": "ownerOf",
      "outputs": [
        {
          "internalType": "address",
          "name": "",
          "type": "address"
        }
      ],
      "stateMutability": "view",
      "type": "function"
    },
    {
      "inputs": [
        {
          "internalType": "uint256",
          "name": "tokenId",
          "type": "uint256"
        }
      ],
      "name": "pickRandomFirstWord",
      "outputs": [
        {
          "internalType": "string",
          "name": "",
          "type": "string"
        }
      ],
      "stateMutability": "view",
      "type": "function"
    },
    {
      "inputs": [
        {
          "internalType": "uint256",
          "name": "tokenId",
          "type": "uint256"
        }
      ],
      "name": "pickRandomSecondWord",
      "outputs": [
        {
          "internalType": "string",
          "name": "",
          "type": "string"
        }
      ],
      "stateMutability": "view",
      "type": "function"
    },
    {
      "inputs": [
        {
          "internalType": "uint256",
          "name": "tokenId",
          "type": "uint256"
        }
      ],
      "name": "pickRandomThirdWord",
      "outputs": [
        {
          "internalType": "string",
          "name": "",
          "type": "string"
        }
      ],
      "stateMutability": "view",
      "type": "function"
    },
    {
      "inputs": [
        {
          "internalType": "uint256",
          "name": "",
          "type": "uint256"
        }
      ],
      "name": "products",
      "outputs": [
        {
          "internalType": "string",
          "name": "name",
          "type": "string"
        },
        {
          "internalType": "uint256",
          "name": "price",
          "type": "uint256"
        },
        {
          "internalType": "string",
          "name": "image",
          "type": "string"
        },
        {
          "internalType": "uint256",
          "name": "quantity",
          "type": "uint256"
        },
        {
          "internalType": "uint256",
          "name": "id",
          "type": "uint256"
        }
      ],
      "stateMutability": "view",
      "type": "function"
    },
    {
      "inputs": [
        {
          "internalType": "uint256",
          "name": "_id",
          "type": "uint256"
        }
      ],
      "name": "removeProductFromCart",
      "outputs": [],
      "stateMutability": "nonpayable",
      "type": "function"
    },
    {
      "inputs": [
        {
          "internalType": "address",
          "name": "from",
          "type": "address"
        },
        {
          "internalType": "address",
          "name": "to",
          "type": "address"
        },
        {
          "internalType": "uint256",
          "name": "tokenId",
          "type": "uint256"
        }
      ],
      "name": "safeTransferFrom",
      "outputs": [],
      "stateMutability": "nonpayable",
      "type": "function"
    },
    {
      "inputs": [
        {
          "internalType": "address",
          "name": "from",
          "type": "address"
        },
        {
          "internalType": "address",
          "name": "to",
          "type": "address"
        },
        {
          "internalType": "uint256",
          "name": "tokenId",
          "type": "uint256"
        },
        {
          "internalType": "bytes",
          "name": "data",
          "type": "bytes"
        }
      ],
      "name": "safeTransferFrom",
      "outputs": [],
      "stateMutability": "nonpayable",
      "type": "function"
    },
    {
      "inputs": [],
      "name": "sendEtherToVendor",
      "outputs": [],
      "stateMutability": "payable",
      "type": "function"
    },
    {
      "inputs": [
        {
          "internalType": "address",
          "name": "operator",
          "type": "address"
        },
        {
          "internalType": "bool",
          "name": "approved",
          "type": "bool"
        }
      ],
      "name": "setApprovalForAll",
      "outputs": [],
      "stateMutability": "nonpayable",
      "type": "function"
    },
    {
      "inputs": [],
      "name": "shoppingCart",
      "outputs": [
        {
          "internalType": "uint256",
          "name": "id",
          "type": "uint256"
        }
      ],
      "stateMutability": "view",
      "type": "function"
    },
    {
      "inputs": [
        {
          "internalType": "bytes4",
          "name": "interfaceId",
          "type": "bytes4"
        }
      ],
      "name": "supportsInterface",
      "outputs": [
        {
          "internalType": "bool",
          "name": "",
          "type": "bool"
        }
      ],
      "stateMutability": "view",
      "type": "function"
    },
    {
      "inputs": [],
      "name": "symbol",
      "outputs": [
        {
          "internalType": "string",
          "name": "",
          "type": "string"
        }
      ],
      "stateMutability": "view",
      "type": "function"
    },
    {
      "inputs": [
        {
          "internalType": "uint256",
          "name": "tokenId",
          "type": "uint256"
        }
      ],
      "name": "tokenURI",
      "outputs": [
        {
          "internalType": "string",
          "name": "",
          "type": "string"
        }
      ],
      "stateMutability": "view",
      "type": "function"
    },
    {
      "inputs": [
        {
          "internalType": "address",
          "name": "from",
          "type": "address"
        },
        {
          "internalType": "address",
          "name": "to",
          "type": "address"
        },
        {
          "internalType": "uint256",
          "name": "tokenId",
          "type": "uint256"
        }
      ],
      "name": "transferFrom",
      "outputs": [],
      "stateMutability": "nonpayable",
      "type": "function"
    },
    {
      "inputs": [],
      "name": "vendor_name",
      "outputs": [
        {
          "internalType": "string",
          "name": "",
          "type": "string"
        }
      ],
      "stateMutability": "view",
      "type": "function"
    }
  ],
  "transactionHash": "0x11ed086692bfa4347579b966998fc31cc04039d5b3711515cb1c91c31a335340",
  "args": [],
  "numDeployments": 15,
  "solcInputHash": "0f64acb61e2f812787ec42ec70a3f45a",
  "bytecode": "0x608060405260405180602001604052806000815250600f90805190602001906200002b9291906200061c565b506040518060c001604052806040518060400160405280600981526020017f594f55525f574f5244000000000000000000000000000000000000000000000081525081526020016040518060400160405280600981526020017f594f55525f574f5244000000000000000000000000000000000000000000000081525081526020016040518060400160405280600981526020017f594f55525f574f5244000000000000000000000000000000000000000000000081525081526020016040518060400160405280600981526020017f594f55525f574f5244000000000000000000000000000000000000000000000081525081526020016040518060400160405280600981526020017f594f55525f574f5244000000000000000000000000000000000000000000000081525081526020016040518060400160405280600981526020017f594f55525f574f524400000000000000000000000000000000000000000000008152508152506010906006620001a9929190620006ad565b506040518060c001604052806040518060400160405280600981526020017f594f55525f574f5244000000000000000000000000000000000000000000000081525081526020016040518060400160405280600981526020017f594f55525f574f5244000000000000000000000000000000000000000000000081525081526020016040518060400160405280600981526020017f594f55525f574f5244000000000000000000000000000000000000000000000081525081526020016040518060400160405280600981526020017f594f55525f574f5244000000000000000000000000000000000000000000000081525081526020016040518060400160405280600981526020017f594f55525f574f5244000000000000000000000000000000000000000000000081525081526020016040518060400160405280600981526020017f594f55525f574f52440000000000000000000000000000000000000000000000815250815250601190600662000327929190620006ad565b506040518060c001604052806040518060400160405280600981526020017f594f55525f574f5244000000000000000000000000000000000000000000000081525081526020016040518060400160405280600981526020017f594f55525f574f5244000000000000000000000000000000000000000000000081525081526020016040518060400160405280600981526020017f594f55525f574f5244000000000000000000000000000000000000000000000081525081526020016040518060400160405280600981526020017f594f55525f574f5244000000000000000000000000000000000000000000000081525081526020016040518060400160405280600981526020017f594f55525f574f5244000000000000000000000000000000000000000000000081525081526020016040518060400160405280600981526020017f594f55525f574f524400000000000000000000000000000000000000000000008152508152506012906006620004a5929190620006ad565b50348015620004b357600080fd5b50604051620051a2380380620051a28339818101604052810190620004d99190620009a3565b6040518060400160405280600681526020017f56656e646f7200000000000000000000000000000000000000000000000000008152506040518060400160405280600681526020017f56454e444f52000000000000000000000000000000000000000000000000000081525081600090805190602001906200055d9291906200061c565b508060019080519060200190620005769291906200061c565b5050508060079080519060200190620005919291906200061c565b5081600860006101000a81548173ffffffffffffffffffffffffffffffffffffffff021916908373ffffffffffffffffffffffffffffffffffffffff16021790555033600960006101000a81548173ffffffffffffffffffffffffffffffffffffffff021916908373ffffffffffffffffffffffffffffffffffffffff160217905550505062000a6e565b8280546200062a9062000a38565b90600052602060002090601f0160209004810192826200064e57600085556200069a565b82601f106200066957805160ff19168380011785556200069a565b828001600101855582156200069a579182015b82811115620006995782518255916020019190600101906200067c565b5b509050620006a9919062000714565b5090565b82805482825590600052602060002090810192821562000701579160200282015b8281111562000700578251829080519060200190620006ef9291906200061c565b5091602001919060010190620006ce565b5b50905062000710919062000733565b5090565b5b808211156200072f57600081600090555060010162000715565b5090565b5b808211156200075757600081816200074d91906200075b565b5060010162000734565b5090565b508054620007699062000a38565b6000825580601f106200077d57506200079e565b601f0160209004906000526020600020908101906200079d919062000714565b5b50565b6000604051905090565b600080fd5b600080fd5b600073ffffffffffffffffffffffffffffffffffffffff82169050919050565b6000620007e282620007b5565b9050919050565b620007f481620007d5565b81146200080057600080fd5b50565b6000815190506200081481620007e9565b92915050565b600080fd5b600080fd5b6000601f19601f8301169050919050565b7f4e487b7100000000000000000000000000000000000000000000000000000000600052604160045260246000fd5b6200086f8262000824565b810181811067ffffffffffffffff8211171562000891576200089062000835565b5b80604052505050565b6000620008a6620007a1565b9050620008b4828262000864565b919050565b600067ffffffffffffffff821115620008d757620008d662000835565b5b620008e28262000824565b9050602081019050919050565b60005b838110156200090f578082015181840152602081019050620008f2565b838111156200091f576000848401525b50505050565b60006200093c6200093684620008b9565b6200089a565b9050828152602081018484840111156200095b576200095a6200081f565b5b62000968848285620008ef565b509392505050565b600082601f8301126200098857620009876200081a565b5b81516200099a84826020860162000925565b91505092915050565b60008060408385031215620009bd57620009bc620007ab565b5b6000620009cd8582860162000803565b925050602083015167ffffffffffffffff811115620009f157620009f0620007b0565b5b620009ff8582860162000970565b9150509250929050565b7f4e487b7100000000000000000000000000000000000000000000000000000000600052602260045260246000fd5b6000600282049050600182168062000a5157607f821691505b6020821081141562000a685762000a6762000a09565b5b50919050565b6147248062000a7e6000396000f3fe6080604052600436106101ee5760003560e01c806386ae74701161010d578063c575757a116100a0578063de8b538d1161006f578063de8b538d1461074f578063de9d132f14610759578063e757223014610770578063e985e9c5146107ad578063f475409f146107ea576101ee565b8063c575757a1461066d578063c87b56dd146106aa578063d5f39488146106e7578063d870b79714610712576101ee565b8063a22cb465116100dc578063a22cb465146105b3578063b187301f146105dc578063b88d4fde14610619578063c29b2f2014610642576101ee565b806386ae747014610507578063893d20e8146105325780638da5cb5b1461055d57806395d89b4114610588576101ee565b80633a2a925c116101855780636352211e116101545780636352211e146104235780636ebdac121461046057806370a08231146104895780637acc0b20146104c6576101ee565b80633a2a925c1461037b57806342842e0e146103a4578063459b01c9146103cd5780634b673d11146103f8576101ee565b806323b872dd116101c157806323b872dd146102c15780632bf32ec3146102ea5780632de38d681461031357806330523e7e14610350576101ee565b806301ffc9a7146101f357806306fdde0314610230578063081812fc1461025b578063095ea7b314610298575b600080fd5b3480156101ff57600080fd5b5061021a60048036038101906102159190612f58565b610815565b6040516102279190612fa0565b60405180910390f35b34801561023c57600080fd5b506102456108f7565b6040516102529190613054565b60405180910390f35b34801561026757600080fd5b50610282600480360381019061027d91906130ac565b610989565b60405161028f919061311a565b60405180910390f35b3480156102a457600080fd5b506102bf60048036038101906102ba9190613161565b6109cf565b005b3480156102cd57600080fd5b506102e860048036038101906102e391906131a1565b610ae7565b005b3480156102f657600080fd5b50610311600480360381019061030c91906130ac565b610b47565b005b34801561031f57600080fd5b5061033a600480360381019061033591906130ac565b610c21565b6040516103479190613054565b60405180910390f35b34801561035c57600080fd5b50610365610d19565b6040516103729190613054565b60405180910390f35b34801561038757600080fd5b506103a2600480360381019061039d9190613329565b610dab565b005b3480156103b057600080fd5b506103cb60048036038101906103c691906131a1565b610ea3565b005b3480156103d957600080fd5b506103e2610ec3565b6040516103ef9190613486565b60405180910390f35b34801561040457600080fd5b5061040d610f1e565b60405161041a91906134b7565b60405180910390f35b34801561042f57600080fd5b5061044a600480360381019061044591906130ac565b610f2a565b604051610457919061311a565b60405180910390f35b34801561046c57600080fd5b50610487600480360381019061048291906130ac565b610fdc565b005b34801561049557600080fd5b506104b060048036038101906104ab91906134d2565b611055565b6040516104bd91906134b7565b60405180910390f35b3480156104d257600080fd5b506104ed60048036038101906104e891906130ac565b61110d565b6040516104fe9594939291906134ff565b60405180910390f35b34801561051357600080fd5b5061051c611253565b6040516105299190613054565b60405180910390f35b34801561053e57600080fd5b506105476112e1565b604051610554919061311a565b60405180910390f35b34801561056957600080fd5b5061057261130b565b60405161057f919061311a565b60405180910390f35b34801561059457600080fd5b5061059d611331565b6040516105aa9190613054565b60405180910390f35b3480156105bf57600080fd5b506105da60048036038101906105d5919061358c565b6113c3565b005b3480156105e857600080fd5b5061060360048036038101906105fe91906130ac565b6113d9565b6040516106109190613054565b60405180910390f35b34801561062557600080fd5b50610640600480360381019061063b919061366d565b6114d1565b005b34801561064e57600080fd5b50610657611533565b6040516106649190613879565b60405180910390f35b34801561067957600080fd5b50610694600480360381019061068f91906130ac565b611741565b6040516106a19190613054565b60405180910390f35b3480156106b657600080fd5b506106d160048036038101906106cc91906130ac565b611839565b6040516106de9190613054565b60405180910390f35b3480156106f357600080fd5b506106fc61194c565b604051610709919061311a565b60405180910390f35b34801561071e57600080fd5b50610739600480360381019061073491906130ac565b611972565b6040516107469190613918565b60405180910390f35b610757611ae1565b005b34801561076557600080fd5b5061076e611cd4565b005b34801561077c57600080fd5b50610797600480360381019061079291906130ac565b611e10565b6040516107a491906134b7565b60405180910390f35b3480156107b957600080fd5b506107d460048036038101906107cf919061393a565b611e30565b6040516107e19190612fa0565b60405180910390f35b3480156107f657600080fd5b506107ff611ec4565b60405161080c91906134b7565b60405180910390f35b60007f80ac58cd000000000000000000000000000000000000000000000000000000007bffffffffffffffffffffffffffffffffffffffffffffffffffffffff1916827bffffffffffffffffffffffffffffffffffffffffffffffffffffffff191614806108e057507f5b5e139f000000000000000000000000000000000000000000000000000000007bffffffffffffffffffffffffffffffffffffffffffffffffffffffff1916827bffffffffffffffffffffffffffffffffffffffffffffffffffffffff1916145b806108f057506108ef82611f3e565b5b9050919050565b606060008054610906906139a9565b80601f0160208091040260200160405190810160405280929190818152602001828054610932906139a9565b801561097f5780601f106109545761010080835404028352916020019161097f565b820191906000526020600020905b81548152906001019060200180831161096257829003601f168201915b5050505050905090565b600061099482611fa8565b6004600083815260200190815260200160002060009054906101000a900473ffffffffffffffffffffffffffffffffffffffff169050919050565b60006109da82610f2a565b90508073ffffffffffffffffffffffffffffffffffffffff168373ffffffffffffffffffffffffffffffffffffffff161415610a4b576040517f08c379a0000000000000000000000000000000000000000000000000000000008152600401610a4290613a4d565b60405180910390fd5b8073ffffffffffffffffffffffffffffffffffffffff16610a6a611ff3565b73ffffffffffffffffffffffffffffffffffffffff161480610a995750610a9881610a93611ff3565b611e30565b5b610ad8576040517f08c379a0000000000000000000000000000000000000000000000000000000008152600401610acf90613adf565b60405180910390fd5b610ae28383611ffb565b505050565b610af8610af2611ff3565b826120b4565b610b37576040517f08c379a0000000000000000000000000000000000000000000000000000000008152600401610b2e90613b71565b60405180910390fd5b610b42838383612149565b505050565b600c6001018190806001815401808255809150506001900390600052602060002001600090919091909150557ff2984bdc0ce5f88de2f42cd8fc34fe3eddf8d42434e2ba1f537df310f4e2274b600b6000838152602001908152602001600020600001600b600084815260200190815260200160002060010154600b6000858152602001908152602001600020600201600b600086815260200190815260200160002060030154600b600087815260200190815260200160002060040154604051610c16959493929190613c26565b60405180910390a150565b60606000610c55610c31846123b0565b604051602001610c419190613d0f565b604051602081830303815290604052612511565b905060108054905081610c689190613d60565b905060108181548110610c7e57610c7d613d91565b5b906000526020600020018054610c93906139a9565b80601f0160208091040260200160405190810160405280929190818152602001828054610cbf906139a9565b8015610d0c5780601f10610ce157610100808354040283529160200191610d0c565b820191906000526020600020905b815481529060010190602001808311610cef57829003601f168201915b5050505050915050919050565b606060078054610d28906139a9565b80601f0160208091040260200160405190810160405280929190818152602001828054610d54906139a9565b8015610da15780601f10610d7657610100808354040283529160200191610da1565b820191906000526020600020905b815481529060010190602001808311610d8457829003601f168201915b5050505050905090565b600a6000815480929190610dbe90613def565b91905055506040518060a00160405280858152602001848152602001838152602001828152602001600a54815250600b6000600a5481526020019081526020016000206000820151816000019080519060200190610e1d929190612df9565b50602082015181600101556040820151816002019080519060200190610e44929190612df9565b5060608201518160030155608082015181600401559050507fe3b25aa175d4abb6345ae28b959875b745e963873f0d50229dfa7100efd3b04784848484600a54604051610e959594939291906134ff565b60405180910390a150505050565b610ebe838383604051806020016040528060008152506114d1565b505050565b6060600c600101805480602002602001604051908101604052809291908181526020018280548015610f1457602002820191906000526020600020905b815481526020019060010190808311610f00575b5050505050905090565b600c8060000154905081565b6000806002600084815260200190815260200160002060009054906101000a900473ffffffffffffffffffffffffffffffffffffffff169050600073ffffffffffffffffffffffffffffffffffffffff168173ffffffffffffffffffffffffffffffffffffffff161415610fd3576040517f08c379a0000000000000000000000000000000000000000000000000000000008152600401610fca90613e84565b60405180910390fd5b80915050919050565b60005b600c600101805490508110156110515781600c600101828154811061100757611006613d91565b5b9060005260206000200154141561103e57600c600101818154811061102f5761102e613d91565b5b90600052602060002001600090555b808061104990613def565b915050610fdf565b5050565b60008073ffffffffffffffffffffffffffffffffffffffff168273ffffffffffffffffffffffffffffffffffffffff1614156110c6576040517f08c379a00000000000000000000000000000000000000000000000000000000081526004016110bd90613f16565b60405180910390fd5b600360008373ffffffffffffffffffffffffffffffffffffffff1673ffffffffffffffffffffffffffffffffffffffff168152602001908152602001600020549050919050565b600b602052806000526040600020600091509050806000018054611130906139a9565b80601f016020809104026020016040519081016040528092919081815260200182805461115c906139a9565b80156111a95780601f1061117e576101008083540402835291602001916111a9565b820191906000526020600020905b81548152906001019060200180831161118c57829003601f168201915b5050505050908060010154908060020180546111c4906139a9565b80601f01602080910402602001604051908101604052809291908181526020018280546111f0906139a9565b801561123d5780601f106112125761010080835404028352916020019161123d565b820191906000526020600020905b81548152906001019060200180831161122057829003601f168201915b5050505050908060030154908060040154905085565b60078054611260906139a9565b80601f016020809104026020016040519081016040528092919081815260200182805461128c906139a9565b80156112d95780601f106112ae576101008083540402835291602001916112d9565b820191906000526020600020905b8154815290600101906020018083116112bc57829003601f168201915b505050505081565b6000600860009054906101000a900473ffffffffffffffffffffffffffffffffffffffff16905090565b600860009054906101000a900473ffffffffffffffffffffffffffffffffffffffff1681565b606060018054611340906139a9565b80601f016020809104026020016040519081016040528092919081815260200182805461136c906139a9565b80156113b95780601f1061138e576101008083540402835291602001916113b9565b820191906000526020600020905b81548152906001019060200180831161139c57829003601f168201915b5050505050905090565b6113d56113ce611ff3565b8383612544565b5050565b6060600061140d6113e9846123b0565b6040516020016113f99190613f82565b604051602081830303815290604052612511565b9050601180549050816114209190613d60565b90506011818154811061143657611435613d91565b5b90600052602060002001805461144b906139a9565b80601f0160208091040260200160405190810160405280929190818152602001828054611477906139a9565b80156114c45780601f10611499576101008083540402835291602001916114c4565b820191906000526020600020905b8154815290600101906020018083116114a757829003601f168201915b5050505050915050919050565b6114e26114dc611ff3565b836120b4565b611521576040517f08c379a000000000000000000000000000000000000000000000000000000000815260040161151890613b71565b60405180910390fd5b61152d848484846126b1565b50505050565b60606000600a5467ffffffffffffffff811115611553576115526131fe565b5b60405190808252806020026020018201604052801561158c57816020015b611579612e7f565b8152602001906001900390816115715790505b50905060005b600a5481101561173957600b60006001836115ad9190613fa4565b81526020019081526020016000206040518060a00160405290816000820180546115d6906139a9565b80601f0160208091040260200160405190810160405280929190818152602001828054611602906139a9565b801561164f5780601f106116245761010080835404028352916020019161164f565b820191906000526020600020905b81548152906001019060200180831161163257829003601f168201915b5050505050815260200160018201548152602001600282018054611672906139a9565b80601f016020809104026020016040519081016040528092919081815260200182805461169e906139a9565b80156116eb5780601f106116c0576101008083540402835291602001916116eb565b820191906000526020600020905b8154815290600101906020018083116116ce57829003601f168201915b505050505081526020016003820154815260200160048201548152505082828151811061171b5761171a613d91565b5b6020026020010181905250808061173190613def565b915050611592565b508091505090565b60606000611775611751846123b0565b6040516020016117619190614046565b604051602081830303815290604052612511565b9050601280549050816117889190613d60565b90506012818154811061179e5761179d613d91565b5b9060005260206000200180546117b3906139a9565b80601f01602080910402602001604051908101604052809291908181526020018280546117df906139a9565b801561182c5780601f106118015761010080835404028352916020019161182c565b820191906000526020600020905b81548152906001019060200180831161180f57829003601f168201915b5050505050915050919050565b606061184482611fa8565b6000600660008481526020019081526020016000208054611864906139a9565b80601f0160208091040260200160405190810160405280929190818152602001828054611890906139a9565b80156118dd5780601f106118b2576101008083540402835291602001916118dd565b820191906000526020600020905b8154815290600101906020018083116118c057829003601f168201915b5050505050905060006118ee61270d565b9050600081511415611904578192505050611947565b600082511115611939578082604051602001611921929190614068565b60405160208183030381529060405292505050611947565b61194284612724565b925050505b919050565b600960009054906101000a900473ffffffffffffffffffffffffffffffffffffffff1681565b61197a612e7f565b600b60008381526020019081526020016000206040518060a00160405290816000820180546119a8906139a9565b80601f01602080910402602001604051908101604052809291908181526020018280546119d4906139a9565b8015611a215780601f106119f657610100808354040283529160200191611a21565b820191906000526020600020905b815481529060010190602001808311611a0457829003601f168201915b5050505050815260200160018201548152602001600282018054611a44906139a9565b80601f0160208091040260200160405190810160405280929190818152602001828054611a70906139a9565b8015611abd5780601f10611a9257610100808354040283529160200191611abd565b820191906000526020600020905b815481529060010190602001808311611aa057829003601f168201915b50505050508152602001600382015481526020016004820154815250509050919050565b600860009054906101000a900473ffffffffffffffffffffffffffffffffffffffff1673ffffffffffffffffffffffffffffffffffffffff166108fc349081150290604051600060405180830381858888f19350505050158015611b49573d6000803e3d6000fd5b5060005b600c60010180549050811015611cc0577ffaabebfc042be040ffe38cdbde83eb863656dec8e75ee5bcf5dc88b7fe741588600b6000600c6001018481548110611b9957611b98613d91565b5b90600052602060002001548152602001908152602001600020600001600b6000600c6001018581548110611bd057611bcf613d91565b5b9060005260206000200154815260200190815260200160002060010154600b6000600c6001018681548110611c0857611c07613d91565b5b90600052602060002001548152602001908152602001600020600201600b6000600c6001018781548110611c3f57611c3e613d91565b5b9060005260206000200154815260200190815260200160002060030154600b6000600c6001018881548110611c7757611c76613d91565b5b9060005260206000200154815260200190815260200160002060040154604051611ca5959493929190613c26565b60405180910390a18080611cb890613def565b915050611b4d565b50600c6001016000611cd29190612eae565b565b6000611ce0600e61278c565b90506000611ced82610c21565b90506000611cfa836113d9565b90506000611d0784611741565b90506000600f848484604051602001611d239493929190614157565b6040516020818303038152906040529050611d726040518060400160405280601581526020017f0a2d2d2d2d2d2d2d2d2d2d2d2d2d2d2d2d2d2d2d2d000000000000000000000081525061279a565b611d7b8161279a565b611db96040518060400160405280601581526020017f2d2d2d2d2d2d2d2d2d2d2d2d2d2d2d2d2d2d2d2d0a000000000000000000000081525061279a565b611dc33386612833565b611ddc8560405180602001604052806000815250612851565b611dff6040518060600160405280602581526020016146ca6025913986336128c5565b611e09600e612964565b5050505050565b6000600b6000838152602001908152602001600020600101549050919050565b6000600560008473ffffffffffffffffffffffffffffffffffffffff1673ffffffffffffffffffffffffffffffffffffffff16815260200190815260200160002060008373ffffffffffffffffffffffffffffffffffffffff1673ffffffffffffffffffffffffffffffffffffffff16815260200190815260200160002060009054906101000a900460ff16905092915050565b6000806000905060005b600c60010180549050811015611f3657600b6000600c6001018381548110611ef957611ef8613d91565b5b906000526020600020015481526020019081526020016000206001015482611f219190613fa4565b91508080611f2e90613def565b915050611ece565b508091505090565b60007f01ffc9a7000000000000000000000000000000000000000000000000000000007bffffffffffffffffffffffffffffffffffffffffffffffffffffffff1916827bffffffffffffffffffffffffffffffffffffffffffffffffffffffff1916149050919050565b611fb18161297a565b611ff0576040517f08c379a0000000000000000000000000000000000000000000000000000000008152600401611fe790613e84565b60405180910390fd5b50565b600033905090565b816004600083815260200190815260200160002060006101000a81548173ffffffffffffffffffffffffffffffffffffffff021916908373ffffffffffffffffffffffffffffffffffffffff160217905550808273ffffffffffffffffffffffffffffffffffffffff1661206e83610f2a565b73ffffffffffffffffffffffffffffffffffffffff167f8c5be1e5ebec7d5bd14f71427d1e84f3dd0314c0f7b2291e5b200ac8c7c3b92560405160405180910390a45050565b6000806120c083610f2a565b90508073ffffffffffffffffffffffffffffffffffffffff168473ffffffffffffffffffffffffffffffffffffffff16148061210257506121018185611e30565b5b8061214057508373ffffffffffffffffffffffffffffffffffffffff1661212884610989565b73ffffffffffffffffffffffffffffffffffffffff16145b91505092915050565b8273ffffffffffffffffffffffffffffffffffffffff1661216982610f2a565b73ffffffffffffffffffffffffffffffffffffffff16146121bf576040517f08c379a00000000000000000000000000000000000000000000000000000000081526004016121b690614212565b60405180910390fd5b600073ffffffffffffffffffffffffffffffffffffffff168273ffffffffffffffffffffffffffffffffffffffff16141561222f576040517f08c379a0000000000000000000000000000000000000000000000000000000008152600401612226906142a4565b60405180910390fd5b61223a8383836129e6565b612245600082611ffb565b6001600360008573ffffffffffffffffffffffffffffffffffffffff1673ffffffffffffffffffffffffffffffffffffffff168152602001908152602001600020600082825461229591906142c4565b925050819055506001600360008473ffffffffffffffffffffffffffffffffffffffff1673ffffffffffffffffffffffffffffffffffffffff16815260200190815260200160002060008282546122ec9190613fa4565b92505081905550816002600083815260200190815260200160002060006101000a81548173ffffffffffffffffffffffffffffffffffffffff021916908373ffffffffffffffffffffffffffffffffffffffff160217905550808273ffffffffffffffffffffffffffffffffffffffff168473ffffffffffffffffffffffffffffffffffffffff167fddf252ad1be2c89b69c2b068fc378daa952ba7f163c4a11628f55a4df523b3ef60405160405180910390a46123ab8383836129eb565b505050565b606060008214156123f8576040518060400160405280600181526020017f3000000000000000000000000000000000000000000000000000000000000000815250905061250c565b600082905060005b6000821461242a57808061241390613def565b915050600a8261242391906142f8565b9150612400565b60008167ffffffffffffffff811115612446576124456131fe565b5b6040519080825280601f01601f1916602001820160405280156124785781602001600182028036833780820191505090505b5090505b600085146125055760018261249191906142c4565b9150600a856124a09190613d60565b60306124ac9190613fa4565b60f81b8183815181106124c2576124c1613d91565b5b60200101907effffffffffffffffffffffffffffffffffffffffffffffffffffffffffffff1916908160001a905350600a856124fe91906142f8565b945061247c565b8093505050505b919050565b6000816040516020016125249190614329565b6040516020818303038152906040528051906020012060001c9050919050565b8173ffffffffffffffffffffffffffffffffffffffff168373ffffffffffffffffffffffffffffffffffffffff1614156125b3576040517f08c379a00000000000000000000000000000000000000000000000000000000081526004016125aa9061438c565b60405180910390fd5b80600560008573ffffffffffffffffffffffffffffffffffffffff1673ffffffffffffffffffffffffffffffffffffffff16815260200190815260200160002060008473ffffffffffffffffffffffffffffffffffffffff1673ffffffffffffffffffffffffffffffffffffffff16815260200190815260200160002060006101000a81548160ff0219169083151502179055508173ffffffffffffffffffffffffffffffffffffffff168373ffffffffffffffffffffffffffffffffffffffff167f17307eab39ab6107e8899845ad3d59bd9653f200f220920489ca2b5937696c31836040516126a49190612fa0565b60405180910390a3505050565b6126bc848484612149565b6126c8848484846129f0565b612707576040517f08c379a00000000000000000000000000000000000000000000000000000000081526004016126fe9061441e565b60405180910390fd5b50505050565b606060405180602001604052806000815250905090565b606061272f82611fa8565b600061273961270d565b905060008151116127595760405180602001604052806000815250612784565b80612763846123b0565b604051602001612774929190614068565b6040516020818303038152906040525b915050919050565b600081600001549050919050565b612830816040516024016127ae9190613054565b6040516020818303038152906040527f41304fac000000000000000000000000000000000000000000000000000000007bffffffffffffffffffffffffffffffffffffffffffffffffffffffff19166020820180517bffffffffffffffffffffffffffffffffffffffffffffffffffffffff8381831617835250505050612b78565b50565b61284d828260405180602001604052806000815250612ba1565b5050565b61285a8261297a565b612899576040517f08c379a0000000000000000000000000000000000000000000000000000000008152600401612890906144b0565b60405180910390fd5b806006600084815260200190815260200160002090805190602001906128c0929190612df9565b505050565b61295f8383836040516024016128dd939291906144d0565b6040516020818303038152906040527f1c7ec448000000000000000000000000000000000000000000000000000000007bffffffffffffffffffffffffffffffffffffffffffffffffffffffff19166020820180517bffffffffffffffffffffffffffffffffffffffffffffffffffffffff8381831617835250505050612b78565b505050565b6001816000016000828254019250508190555050565b60008073ffffffffffffffffffffffffffffffffffffffff166002600084815260200190815260200160002060009054906101000a900473ffffffffffffffffffffffffffffffffffffffff1673ffffffffffffffffffffffffffffffffffffffff1614159050919050565b505050565b505050565b6000612a118473ffffffffffffffffffffffffffffffffffffffff16612bfc565b15612b6b578373ffffffffffffffffffffffffffffffffffffffff1663150b7a02612a3a611ff3565b8786866040518563ffffffff1660e01b8152600401612a5c9493929190614563565b6020604051808303816000875af1925050508015612a9857506040513d601f19601f82011682018060405250810190612a9591906145c4565b60015b612b1b573d8060008114612ac8576040519150601f19603f3d011682016040523d82523d6000602084013e612acd565b606091505b50600081511415612b13576040517f08c379a0000000000000000000000000000000000000000000000000000000008152600401612b0a9061441e565b60405180910390fd5b805181602001fd5b63150b7a0260e01b7bffffffffffffffffffffffffffffffffffffffffffffffffffffffff1916817bffffffffffffffffffffffffffffffffffffffffffffffffffffffff191614915050612b70565b600190505b949350505050565b60008151905060006a636f6e736f6c652e6c6f679050602083016000808483855afa5050505050565b612bab8383612c1f565b612bb860008484846129f0565b612bf7576040517f08c379a0000000000000000000000000000000000000000000000000000000008152600401612bee9061441e565b60405180910390fd5b505050565b6000808273ffffffffffffffffffffffffffffffffffffffff163b119050919050565b600073ffffffffffffffffffffffffffffffffffffffff168273ffffffffffffffffffffffffffffffffffffffff161415612c8f576040517f08c379a0000000000000000000000000000000000000000000000000000000008152600401612c869061463d565b60405180910390fd5b612c988161297a565b15612cd8576040517f08c379a0000000000000000000000000000000000000000000000000000000008152600401612ccf906146a9565b60405180910390fd5b612ce4600083836129e6565b6001600360008473ffffffffffffffffffffffffffffffffffffffff1673ffffffffffffffffffffffffffffffffffffffff1681526020019081526020016000206000828254612d349190613fa4565b92505081905550816002600083815260200190815260200160002060006101000a81548173ffffffffffffffffffffffffffffffffffffffff021916908373ffffffffffffffffffffffffffffffffffffffff160217905550808273ffffffffffffffffffffffffffffffffffffffff16600073ffffffffffffffffffffffffffffffffffffffff167fddf252ad1be2c89b69c2b068fc378daa952ba7f163c4a11628f55a4df523b3ef60405160405180910390a4612df5600083836129eb565b5050565b828054612e05906139a9565b90600052602060002090601f016020900481019282612e275760008555612e6e565b82601f10612e4057805160ff1916838001178555612e6e565b82800160010185558215612e6e579182015b82811115612e6d578251825591602001919060010190612e52565b5b509050612e7b9190612ecf565b5090565b6040518060a0016040528060608152602001600081526020016060815260200160008152602001600081525090565b5080546000825590600052602060002090810190612ecc9190612ecf565b50565b5b80821115612ee8576000816000905550600101612ed0565b5090565b6000604051905090565b600080fd5b600080fd5b60007fffffffff0000000000000000000000000000000000000000000000000000000082169050919050565b612f3581612f00565b8114612f4057600080fd5b50565b600081359050612f5281612f2c565b92915050565b600060208284031215612f6e57612f6d612ef6565b5b6000612f7c84828501612f43565b91505092915050565b60008115159050919050565b612f9a81612f85565b82525050565b6000602082019050612fb56000830184612f91565b92915050565b600081519050919050565b600082825260208201905092915050565b60005b83811015612ff5578082015181840152602081019050612fda565b83811115613004576000848401525b50505050565b6000601f19601f8301169050919050565b600061302682612fbb565b6130308185612fc6565b9350613040818560208601612fd7565b6130498161300a565b840191505092915050565b6000602082019050818103600083015261306e818461301b565b905092915050565b6000819050919050565b61308981613076565b811461309457600080fd5b50565b6000813590506130a681613080565b92915050565b6000602082840312156130c2576130c1612ef6565b5b60006130d084828501613097565b91505092915050565b600073ffffffffffffffffffffffffffffffffffffffff82169050919050565b6000613104826130d9565b9050919050565b613114816130f9565b82525050565b600060208201905061312f600083018461310b565b92915050565b61313e816130f9565b811461314957600080fd5b50565b60008135905061315b81613135565b92915050565b6000806040838503121561317857613177612ef6565b5b60006131868582860161314c565b925050602061319785828601613097565b9150509250929050565b6000806000606084860312156131ba576131b9612ef6565b5b60006131c88682870161314c565b93505060206131d98682870161314c565b92505060406131ea86828701613097565b9150509250925092565b600080fd5b600080fd5b7f4e487b7100000000000000000000000000000000000000000000000000000000600052604160045260246000fd5b6132368261300a565b810181811067ffffffffffffffff82111715613255576132546131fe565b5b80604052505050565b6000613268612eec565b9050613274828261322d565b919050565b600067ffffffffffffffff821115613294576132936131fe565b5b61329d8261300a565b9050602081019050919050565b82818337600083830152505050565b60006132cc6132c784613279565b61325e565b9050828152602081018484840111156132e8576132e76131f9565b5b6132f38482856132aa565b509392505050565b600082601f8301126133105761330f6131f4565b5b81356133208482602086016132b9565b91505092915050565b6000806000806080858703121561334357613342612ef6565b5b600085013567ffffffffffffffff81111561336157613360612efb565b5b61336d878288016132fb565b945050602061337e87828801613097565b935050604085013567ffffffffffffffff81111561339f5761339e612efb565b5b6133ab878288016132fb565b92505060606133bc87828801613097565b91505092959194509250565b600081519050919050565b600082825260208201905092915050565b6000819050602082019050919050565b6133fd81613076565b82525050565b600061340f83836133f4565b60208301905092915050565b6000602082019050919050565b6000613433826133c8565b61343d81856133d3565b9350613448836133e4565b8060005b838110156134795781516134608882613403565b975061346b8361341b565b92505060018101905061344c565b5085935050505092915050565b600060208201905081810360008301526134a08184613428565b905092915050565b6134b181613076565b82525050565b60006020820190506134cc60008301846134a8565b92915050565b6000602082840312156134e8576134e7612ef6565b5b60006134f68482850161314c565b91505092915050565b600060a0820190508181036000830152613519818861301b565b905061352860208301876134a8565b818103604083015261353a818661301b565b905061354960608301856134a8565b61355660808301846134a8565b9695505050505050565b61356981612f85565b811461357457600080fd5b50565b60008135905061358681613560565b92915050565b600080604083850312156135a3576135a2612ef6565b5b60006135b18582860161314c565b92505060206135c285828601613577565b9150509250929050565b600067ffffffffffffffff8211156135e7576135e66131fe565b5b6135f08261300a565b9050602081019050919050565b600061361061360b846135cc565b61325e565b90508281526020810184848401111561362c5761362b6131f9565b5b6136378482856132aa565b509392505050565b600082601f830112613654576136536131f4565b5b81356136648482602086016135fd565b91505092915050565b6000806000806080858703121561368757613686612ef6565b5b60006136958782880161314c565b94505060206136a68782880161314c565b93505060406136b787828801613097565b925050606085013567ffffffffffffffff8111156136d8576136d7612efb565b5b6136e48782880161363f565b91505092959194509250565b600081519050919050565b600082825260208201905092915050565b6000819050602082019050919050565b600082825260208201905092915050565b600061373882612fbb565b613742818561371c565b9350613752818560208601612fd7565b61375b8161300a565b840191505092915050565b600060a0830160008301518482036000860152613783828261372d565b915050602083015161379860208601826133f4565b50604083015184820360408601526137b0828261372d565b91505060608301516137c560608601826133f4565b5060808301516137d860808601826133f4565b508091505092915050565b60006137ef8383613766565b905092915050565b6000602082019050919050565b600061380f826136f0565b61381981856136fb565b93508360208202850161382b8561370c565b8060005b85811015613867578484038952815161384885826137e3565b9450613853836137f7565b925060208a0199505060018101905061382f565b50829750879550505050505092915050565b600060208201905081810360008301526138938184613804565b905092915050565b600060a08301600083015184820360008601526138b8828261372d565b91505060208301516138cd60208601826133f4565b50604083015184820360408601526138e5828261372d565b91505060608301516138fa60608601826133f4565b50608083015161390d60808601826133f4565b508091505092915050565b60006020820190508181036000830152613932818461389b565b905092915050565b6000806040838503121561395157613950612ef6565b5b600061395f8582860161314c565b92505060206139708582860161314c565b9150509250929050565b7f4e487b7100000000000000000000000000000000000000000000000000000000600052602260045260246000fd5b600060028204905060018216806139c157607f821691505b602082108114156139d5576139d461397a565b5b50919050565b7f4552433732313a20617070726f76616c20746f2063757272656e74206f776e6560008201527f7200000000000000000000000000000000000000000000000000000000000000602082015250565b6000613a37602183612fc6565b9150613a42826139db565b604082019050919050565b60006020820190508181036000830152613a6681613a2a565b9050919050565b7f4552433732313a20617070726f76652063616c6c6572206973206e6f7420746f60008201527f6b656e206f776e6572206e6f7220617070726f76656420666f7220616c6c0000602082015250565b6000613ac9603e83612fc6565b9150613ad482613a6d565b604082019050919050565b60006020820190508181036000830152613af881613abc565b9050919050565b7f4552433732313a2063616c6c6572206973206e6f7420746f6b656e206f776e6560008201527f72206e6f7220617070726f766564000000000000000000000000000000000000602082015250565b6000613b5b602e83612fc6565b9150613b6682613aff565b604082019050919050565b60006020820190508181036000830152613b8a81613b4e565b9050919050565b60008190508160005260206000209050919050565b60008154613bb3816139a9565b613bbd8186612fc6565b94506001821660008114613bd85760018114613bea57613c1d565b60ff1983168652602086019350613c1d565b613bf385613b91565b60005b83811015613c1557815481890152600182019150602081019050613bf6565b808801955050505b50505092915050565b600060a0820190508181036000830152613c408188613ba6565b9050613c4f60208301876134a8565b8181036040830152613c618186613ba6565b9050613c7060608301856134a8565b613c7d60808301846134a8565b9695505050505050565b600081905092915050565b7f46495253545f574f524400000000000000000000000000000000000000000000600082015250565b6000613cc8600a83613c87565b9150613cd382613c92565b600a82019050919050565b6000613ce982612fbb565b613cf38185613c87565b9350613d03818560208601612fd7565b80840191505092915050565b6000613d1a82613cbb565b9150613d268284613cde565b915081905092915050565b7f4e487b7100000000000000000000000000000000000000000000000000000000600052601260045260246000fd5b6000613d6b82613076565b9150613d7683613076565b925082613d8657613d85613d31565b5b828206905092915050565b7f4e487b7100000000000000000000000000000000000000000000000000000000600052603260045260246000fd5b7f4e487b7100000000000000000000000000000000000000000000000000000000600052601160045260246000fd5b6000613dfa82613076565b91507fffffffffffffffffffffffffffffffffffffffffffffffffffffffffffffffff821415613e2d57613e2c613dc0565b5b600182019050919050565b7f4552433732313a20696e76616c696420746f6b656e2049440000000000000000600082015250565b6000613e6e601883612fc6565b9150613e7982613e38565b602082019050919050565b60006020820190508181036000830152613e9d81613e61565b9050919050565b7f4552433732313a2061646472657373207a65726f206973206e6f74206120766160008201527f6c6964206f776e65720000000000000000000000000000000000000000000000602082015250565b6000613f00602983612fc6565b9150613f0b82613ea4565b604082019050919050565b60006020820190508181036000830152613f2f81613ef3565b9050919050565b7f5345434f4e445f574f5244000000000000000000000000000000000000000000600082015250565b6000613f6c600b83613c87565b9150613f7782613f36565b600b82019050919050565b6000613f8d82613f5f565b9150613f998284613cde565b915081905092915050565b6000613faf82613076565b9150613fba83613076565b9250827fffffffffffffffffffffffffffffffffffffffffffffffffffffffffffffffff03821115613fef57613fee613dc0565b5b828201905092915050565b7f54484952445f574f524400000000000000000000000000000000000000000000600082015250565b6000614030600a83613c87565b915061403b82613ffa565b600a82019050919050565b600061405182614023565b915061405d8284613cde565b915081905092915050565b60006140748285613cde565b91506140808284613cde565b91508190509392505050565b60008154614099816139a9565b6140a38186613c87565b945060018216600081146140be57600181146140cf57614102565b60ff19831686528186019350614102565b6140d885613b91565b60005b838110156140fa578154818901526001820191506020810190506140db565b838801955050505b50505092915050565b7f3c2f746578743e3c2f7376673e00000000000000000000000000000000000000600082015250565b6000614141600d83613c87565b915061414c8261410b565b600d82019050919050565b6000614163828761408c565b915061416f8286613cde565b915061417b8285613cde565b91506141878284613cde565b915061419282614134565b915081905095945050505050565b7f4552433732313a207472616e736665722066726f6d20696e636f72726563742060008201527f6f776e6572000000000000000000000000000000000000000000000000000000602082015250565b60006141fc602583612fc6565b9150614207826141a0565b604082019050919050565b6000602082019050818103600083015261422b816141ef565b9050919050565b7f4552433732313a207472616e7366657220746f20746865207a65726f2061646460008201527f7265737300000000000000000000000000000000000000000000000000000000602082015250565b600061428e602483612fc6565b915061429982614232565b604082019050919050565b600060208201905081810360008301526142bd81614281565b9050919050565b60006142cf82613076565b91506142da83613076565b9250828210156142ed576142ec613dc0565b5b828203905092915050565b600061430382613076565b915061430e83613076565b92508261431e5761431d613d31565b5b828204905092915050565b60006143358284613cde565b915081905092915050565b7f4552433732313a20617070726f766520746f2063616c6c657200000000000000600082015250565b6000614376601983612fc6565b915061438182614340565b602082019050919050565b600060208201905081810360008301526143a581614369565b9050919050565b7f4552433732313a207472616e7366657220746f206e6f6e20455243373231526560008201527f63656976657220696d706c656d656e7465720000000000000000000000000000602082015250565b6000614408603283612fc6565b9150614413826143ac565b604082019050919050565b60006020820190508181036000830152614437816143fb565b9050919050565b7f45524337323155524953746f726167653a2055524920736574206f66206e6f6e60008201527f6578697374656e7420746f6b656e000000000000000000000000000000000000602082015250565b600061449a602e83612fc6565b91506144a58261443e565b604082019050919050565b600060208201905081810360008301526144c98161448d565b9050919050565b600060608201905081810360008301526144ea818661301b565b90506144f960208301856134a8565b614506604083018461310b565b949350505050565b600081519050919050565b600082825260208201905092915050565b60006145358261450e565b61453f8185614519565b935061454f818560208601612fd7565b6145588161300a565b840191505092915050565b6000608082019050614578600083018761310b565b614585602083018661310b565b61459260408301856134a8565b81810360608301526145a4818461452a565b905095945050505050565b6000815190506145be81612f2c565b92915050565b6000602082840312156145da576145d9612ef6565b5b60006145e8848285016145af565b91505092915050565b7f4552433732313a206d696e7420746f20746865207a65726f2061646472657373600082015250565b6000614627602083612fc6565b9150614632826145f1565b602082019050919050565b600060208201905081810360008301526146568161461a565b9050919050565b7f4552433732313a20746f6b656e20616c7265616479206d696e74656400000000600082015250565b6000614693601c83612fc6565b915061469e8261465d565b602082019050919050565b600060208201905081810360008301526146c281614686565b905091905056fe416e204e465420772f20494420257320686173206265656e206d696e74656420746f202573a26469706673582212206c91b5bb2ab736895283c0a5aec2102458d8a61987fe84af4eaac0f3a565efbd64736f6c634300080a0033",
  "devdoc": {
    "kind": "dev",
    "methods": {
      "approve(address,uint256)": {
        "details": "See {IERC721-approve}."
      },
      "balanceOf(address)": {
        "details": "See {IERC721-balanceOf}."
      },
      "getApproved(uint256)": {
        "details": "See {IERC721-getApproved}."
      },
      "isApprovedForAll(address,address)": {
        "details": "See {IERC721-isApprovedForAll}."
      },
      "name()": {
        "details": "See {IERC721Metadata-name}."
      },
      "ownerOf(uint256)": {
        "details": "See {IERC721-ownerOf}."
      },
      "safeTransferFrom(address,address,uint256)": {
        "details": "See {IERC721-safeTransferFrom}."
      },
      "safeTransferFrom(address,address,uint256,bytes)": {
        "details": "See {IERC721-safeTransferFrom}."
      },
      "setApprovalForAll(address,bool)": {
        "details": "See {IERC721-setApprovalForAll}."
      },
      "supportsInterface(bytes4)": {
        "details": "See {IERC165-supportsInterface}."
      },
      "symbol()": {
        "details": "See {IERC721Metadata-symbol}."
      },
      "tokenURI(uint256)": {
        "details": "See {IERC721Metadata-tokenURI}."
      },
      "transferFrom(address,address,uint256)": {
        "details": "See {IERC721-transferFrom}."
      }
    },
    "version": 1
  },
  "userdoc": {
    "kind": "user",
    "methods": {},
    "version": 1
  },
  "storageLayout": {
    "storage": [
      {
        "astId": 25,
        "contract": "contracts/Vendor.sol:Vendor",
        "label": "_name",
        "offset": 0,
        "slot": "0",
        "type": "t_string_storage"
      },
      {
        "astId": 27,
        "contract": "contracts/Vendor.sol:Vendor",
        "label": "_symbol",
        "offset": 0,
        "slot": "1",
        "type": "t_string_storage"
      },
      {
        "astId": 31,
        "contract": "contracts/Vendor.sol:Vendor",
        "label": "_owners",
        "offset": 0,
        "slot": "2",
        "type": "t_mapping(t_uint256,t_address)"
      },
      {
        "astId": 35,
        "contract": "contracts/Vendor.sol:Vendor",
        "label": "_balances",
        "offset": 0,
        "slot": "3",
        "type": "t_mapping(t_address,t_uint256)"
      },
      {
        "astId": 39,
        "contract": "contracts/Vendor.sol:Vendor",
        "label": "_tokenApprovals",
        "offset": 0,
        "slot": "4",
        "type": "t_mapping(t_uint256,t_address)"
      },
      {
        "astId": 45,
        "contract": "contracts/Vendor.sol:Vendor",
        "label": "_operatorApprovals",
        "offset": 0,
        "slot": "5",
        "type": "t_mapping(t_address,t_mapping(t_address,t_bool))"
      },
      {
        "astId": 1013,
        "contract": "contracts/Vendor.sol:Vendor",
        "label": "_tokenURIs",
        "offset": 0,
        "slot": "6",
        "type": "t_mapping(t_uint256,t_string_storage)"
      },
      {
        "astId": 1814,
        "contract": "contracts/Vendor.sol:Vendor",
        "label": "vendor_name",
        "offset": 0,
        "slot": "7",
        "type": "t_string_storage"
      },
      {
        "astId": 1816,
        "contract": "contracts/Vendor.sol:Vendor",
        "label": "owner",
        "offset": 0,
        "slot": "8",
        "type": "t_address"
      },
      {
        "astId": 1818,
        "contract": "contracts/Vendor.sol:Vendor",
        "label": "deployer",
        "offset": 0,
        "slot": "9",
        "type": "t_address"
      },
      {
        "astId": 1820,
        "contract": "contracts/Vendor.sol:Vendor",
        "label": "totalProducts",
        "offset": 0,
        "slot": "10",
        "type": "t_uint256"
      },
      {
        "astId": 1836,
        "contract": "contracts/Vendor.sol:Vendor",
        "label": "products",
        "offset": 0,
        "slot": "11",
        "type": "t_mapping(t_uint256,t_struct(Product)1831_storage)"
      },
      {
        "astId": 1881,
        "contract": "contracts/Vendor.sol:Vendor",
        "label": "shoppingCart",
        "offset": 0,
        "slot": "12",
        "type": "t_struct(ShoppingCart)1878_storage"
      },
      {
        "astId": 2220,
        "contract": "contracts/Vendor.sol:Vendor",
        "label": "_tokenIds",
        "offset": 0,
        "slot": "14",
        "type": "t_struct(Counter)1475_storage"
      },
      {
        "astId": 2223,
        "contract": "contracts/Vendor.sol:Vendor",
        "label": "baseSvg",
        "offset": 0,
        "slot": "15",
        "type": "t_string_storage"
      },
      {
        "astId": 2233,
        "contract": "contracts/Vendor.sol:Vendor",
        "label": "firstWords",
        "offset": 0,
        "slot": "16",
        "type": "t_array(t_string_storage)dyn_storage"
      },
      {
        "astId": 2243,
        "contract": "contracts/Vendor.sol:Vendor",
        "label": "secondWords",
        "offset": 0,
        "slot": "17",
        "type": "t_array(t_string_storage)dyn_storage"
      },
      {
        "astId": 2253,
        "contract": "contracts/Vendor.sol:Vendor",
        "label": "thirdWords",
        "offset": 0,
        "slot": "18",
        "type": "t_array(t_string_storage)dyn_storage"
      }
    ],
    "types": {
      "t_address": {
        "encoding": "inplace",
        "label": "address",
        "numberOfBytes": "20"
      },
      "t_array(t_string_storage)dyn_storage": {
        "base": "t_string_storage",
        "encoding": "dynamic_array",
        "label": "string[]",
        "numberOfBytes": "32"
      },
      "t_array(t_uint256)dyn_storage": {
        "base": "t_uint256",
        "encoding": "dynamic_array",
        "label": "uint256[]",
        "numberOfBytes": "32"
      },
      "t_bool": {
        "encoding": "inplace",
        "label": "bool",
        "numberOfBytes": "1"
      },
      "t_mapping(t_address,t_bool)": {
        "encoding": "mapping",
        "key": "t_address",
        "label": "mapping(address => bool)",
        "numberOfBytes": "32",
        "value": "t_bool"
      },
      "t_mapping(t_address,t_mapping(t_address,t_bool))": {
        "encoding": "mapping",
        "key": "t_address",
        "label": "mapping(address => mapping(address => bool))",
        "numberOfBytes": "32",
        "value": "t_mapping(t_address,t_bool)"
      },
      "t_mapping(t_address,t_uint256)": {
        "encoding": "mapping",
        "key": "t_address",
        "label": "mapping(address => uint256)",
        "numberOfBytes": "32",
        "value": "t_uint256"
      },
      "t_mapping(t_uint256,t_address)": {
        "encoding": "mapping",
        "key": "t_uint256",
        "label": "mapping(uint256 => address)",
        "numberOfBytes": "32",
        "value": "t_address"
      },
      "t_mapping(t_uint256,t_string_storage)": {
        "encoding": "mapping",
        "key": "t_uint256",
        "label": "mapping(uint256 => string)",
        "numberOfBytes": "32",
        "value": "t_string_storage"
      },
      "t_mapping(t_uint256,t_struct(Product)1831_storage)": {
        "encoding": "mapping",
        "key": "t_uint256",
        "label": "mapping(uint256 => struct Vendor.Product)",
        "numberOfBytes": "32",
        "value": "t_struct(Product)1831_storage"
      },
      "t_string_storage": {
        "encoding": "bytes",
        "label": "string",
        "numberOfBytes": "32"
      },
      "t_struct(Counter)1475_storage": {
        "encoding": "inplace",
        "label": "struct Counters.Counter",
        "members": [
          {
            "astId": 1474,
            "contract": "contracts/Vendor.sol:Vendor",
            "label": "_value",
            "offset": 0,
            "slot": "0",
            "type": "t_uint256"
          }
        ],
        "numberOfBytes": "32"
      },
      "t_struct(Product)1831_storage": {
        "encoding": "inplace",
        "label": "struct Vendor.Product",
        "members": [
          {
            "astId": 1822,
            "contract": "contracts/Vendor.sol:Vendor",
            "label": "name",
            "offset": 0,
            "slot": "0",
            "type": "t_string_storage"
          },
          {
            "astId": 1824,
            "contract": "contracts/Vendor.sol:Vendor",
            "label": "price",
            "offset": 0,
            "slot": "1",
            "type": "t_uint256"
          },
          {
            "astId": 1826,
            "contract": "contracts/Vendor.sol:Vendor",
            "label": "image",
            "offset": 0,
            "slot": "2",
            "type": "t_string_storage"
          },
          {
            "astId": 1828,
            "contract": "contracts/Vendor.sol:Vendor",
            "label": "quantity",
            "offset": 0,
            "slot": "3",
            "type": "t_uint256"
          },
          {
            "astId": 1830,
            "contract": "contracts/Vendor.sol:Vendor",
            "label": "id",
            "offset": 0,
            "slot": "4",
            "type": "t_uint256"
          }
        ],
        "numberOfBytes": "160"
      },
      "t_struct(ShoppingCart)1878_storage": {
        "encoding": "inplace",
        "label": "struct Vendor.ShoppingCart",
        "members": [
          {
            "astId": 1874,
            "contract": "contracts/Vendor.sol:Vendor",
            "label": "id",
            "offset": 0,
            "slot": "0",
            "type": "t_uint256"
          },
          {
            "astId": 1877,
            "contract": "contracts/Vendor.sol:Vendor",
            "label": "products",
            "offset": 0,
            "slot": "1",
            "type": "t_array(t_uint256)dyn_storage"
          }
        ],
        "numberOfBytes": "64"
      },
      "t_uint256": {
        "encoding": "inplace",
        "label": "uint256",
        "numberOfBytes": "32"
      }
    }
  }
}