{
  "address": "0x1613beB3B2C4f22Ee086B2b38C1476A3cE7f78E8",
  "abi": [
    {
      "anonymous": false,
      "inputs": [
        {
          "indexed": false,
          "internalType": "address",
          "name": "vendor_address",
          "type": "address"
        },
        {
          "indexed": false,
          "internalType": "address",
          "name": "owner",
          "type": "address"
        },
        {
          "indexed": false,
          "internalType": "string",
          "name": "vendor_name",
          "type": "string"
        }
      ],
      "name": "VendorCreated",
      "type": "event"
    },
    {
      "inputs": [
        {
          "internalType": "address",
          "name": "_owner",
          "type": "address"
        },
        {
          "internalType": "string",
          "name": "_vendorName",
          "type": "string"
        }
      ],
      "name": "createVendor",
      "outputs": [],
      "stateMutability": "nonpayable",
      "type": "function"
    },
    {
      "inputs": [],
      "name": "getVendors",
      "outputs": [
        {
          "internalType": "contract Vendor[]",
          "name": "",
          "type": "address[]"
        }
      ],
      "stateMutability": "view",
      "type": "function"
    },
    {
      "inputs": [
        {
          "internalType": "uint256",
          "name": "",
          "type": "uint256"
        }
      ],
      "name": "list_of_vendors",
      "outputs": [
        {
          "internalType": "contract Vendor",
          "name": "",
          "type": "address"
        }
      ],
      "stateMutability": "view",
      "type": "function"
    }
  ],
  "transactionHash": "0x9eab1059f1419ea7d6a0057e9b74e933d7133f5c0453c654c19e95958c5a7259",
  "args": [],
  "numDeployments": 18,
  "solcInputHash": "f74a30a1820ff0b8fc0ae2beeec092bb",
  "bytecode": "0x608060405234801561001057600080fd5b506125ea806100206000396000f3fe60806040523480156200001157600080fd5b5060043610620000465760003560e01c806364bebcc5146200004b57806391452ef4146200006d578063eac310ac14620000a3575b600080fd5b62000055620000c3565b60405162000064919062000447565b60405180910390f35b6200008b6004803603810190620000859190620004ba565b62000153565b6040516200009a9190620004fd565b60405180910390f35b620000c16004803603810190620000bb9190620006c1565b62000193565b005b606060018054806020026020016040519081016040528092919081815260200182805480156200014957602002820191906000526020600020905b8160009054906101000a900473ffffffffffffffffffffffffffffffffffffffff1673ffffffffffffffffffffffffffffffffffffffff1681526020019060010190808311620000fe575b5050505050905090565b600181815481106200016457600080fd5b906000526020600020016000915054906101000a900473ffffffffffffffffffffffffffffffffffffffff1681565b8181604051620001a390620002f1565b620001b0929190620007cb565b604051809103906000f080158015620001cd573d6000803e3d6000fd5b506000806101000a81548173ffffffffffffffffffffffffffffffffffffffff021916908373ffffffffffffffffffffffffffffffffffffffff160217905550600160008054906101000a900473ffffffffffffffffffffffffffffffffffffffff169080600181540180825580915050600190039060005260206000200160009091909190916101000a81548173ffffffffffffffffffffffffffffffffffffffff021916908373ffffffffffffffffffffffffffffffffffffffff1602179055507f72ed0dee50bf115b04570644917f9048aa993a4fb79cb71fb9801f770d7f288a60008054906101000a900473ffffffffffffffffffffffffffffffffffffffff168383604051620002e593929190620007ff565b60405180910390a15050565b611d71806200084483390190565b600081519050919050565b600082825260208201905092915050565b6000819050602082019050919050565b600073ffffffffffffffffffffffffffffffffffffffff82169050919050565b6000819050919050565b600062000376620003706200036a846200032b565b6200034b565b6200032b565b9050919050565b60006200038a8262000355565b9050919050565b60006200039e826200037d565b9050919050565b620003b08162000391565b82525050565b6000620003c48383620003a5565b60208301905092915050565b6000602082019050919050565b6000620003ea82620002ff565b620003f681856200030a565b935062000403836200031b565b8060005b838110156200043a5781516200041e8882620003b6565b97506200042b83620003d0565b92505060018101905062000407565b5085935050505092915050565b60006020820190508181036000830152620004638184620003dd565b905092915050565b6000604051905090565b600080fd5b600080fd5b6000819050919050565b62000494816200047f565b8114620004a057600080fd5b50565b600081359050620004b48162000489565b92915050565b600060208284031215620004d357620004d262000475565b5b6000620004e384828501620004a3565b91505092915050565b620004f78162000391565b82525050565b6000602082019050620005146000830184620004ec565b92915050565b600062000527826200032b565b9050919050565b62000539816200051a565b81146200054557600080fd5b50565b60008135905062000559816200052e565b92915050565b600080fd5b600080fd5b6000601f19601f8301169050919050565b7f4e487b7100000000000000000000000000000000000000000000000000000000600052604160045260246000fd5b620005b48262000569565b810181811067ffffffffffffffff82111715620005d657620005d56200057a565b5b80604052505050565b6000620005eb6200046b565b9050620005f98282620005a9565b919050565b600067ffffffffffffffff8211156200061c576200061b6200057a565b5b620006278262000569565b9050602081019050919050565b82818337600083830152505050565b60006200065a6200065484620005fe565b620005df565b90508281526020810184848401111562000679576200067862000564565b5b6200068684828562000634565b509392505050565b600082601f830112620006a657620006a56200055f565b5b8135620006b884826020860162000643565b91505092915050565b60008060408385031215620006db57620006da62000475565b5b6000620006eb8582860162000548565b925050602083013567ffffffffffffffff8111156200070f576200070e6200047a565b5b6200071d858286016200068e565b9150509250929050565b62000732816200051a565b82525050565b600081519050919050565b600082825260208201905092915050565b60005b838110156200077457808201518184015260208101905062000757565b8381111562000784576000848401525b50505050565b6000620007978262000738565b620007a3818562000743565b9350620007b581856020860162000754565b620007c08162000569565b840191505092915050565b6000604082019050620007e2600083018562000727565b8181036020830152620007f681846200078a565b90509392505050565b600060608201905062000816600083018662000727565b62000825602083018562000727565b81810360408301526200083981846200078a565b905094935050505056fe60806040523480156200001157600080fd5b5060405162001d7138038062001d7183398181016040528101906200003791906200038c565b80600090805190602001906200004f929190620000da565b5081600160006101000a81548173ffffffffffffffffffffffffffffffffffffffff021916908373ffffffffffffffffffffffffffffffffffffffff16021790555033600260006101000a81548173ffffffffffffffffffffffffffffffffffffffff021916908373ffffffffffffffffffffffffffffffffffffffff160217905550505062000457565b828054620000e89062000421565b90600052602060002090601f0160209004810192826200010c576000855562000158565b82601f106200012757805160ff191683800117855562000158565b8280016001018555821562000158579182015b82811115620001575782518255916020019190600101906200013a565b5b5090506200016791906200016b565b5090565b5b80821115620001865760008160009055506001016200016c565b5090565b6000604051905090565b600080fd5b600080fd5b600073ffffffffffffffffffffffffffffffffffffffff82169050919050565b6000620001cb826200019e565b9050919050565b620001dd81620001be565b8114620001e957600080fd5b50565b600081519050620001fd81620001d2565b92915050565b600080fd5b600080fd5b6000601f19601f8301169050919050565b7f4e487b7100000000000000000000000000000000000000000000000000000000600052604160045260246000fd5b62000258826200020d565b810181811067ffffffffffffffff821117156200027a57620002796200021e565b5b80604052505050565b60006200028f6200018a565b90506200029d82826200024d565b919050565b600067ffffffffffffffff821115620002c057620002bf6200021e565b5b620002cb826200020d565b9050602081019050919050565b60005b83811015620002f8578082015181840152602081019050620002db565b8381111562000308576000848401525b50505050565b6000620003256200031f84620002a2565b62000283565b90508281526020810184848401111562000344576200034362000208565b5b62000351848285620002d8565b509392505050565b600082601f83011262000371576200037062000203565b5b8151620003838482602086016200030e565b91505092915050565b60008060408385031215620003a657620003a562000194565b5b6000620003b685828601620001ec565b925050602083015167ffffffffffffffff811115620003da57620003d962000199565b5b620003e88582860162000359565b9150509250929050565b7f4e487b7100000000000000000000000000000000000000000000000000000000600052602260045260246000fd5b600060028204905060018216806200043a57607f821691505b60208210811415620004515762000450620003f2565b5b50919050565b61190a80620004676000396000f3fe6080604052600436106100f35760003560e01c8063893d20e81161008a578063d870b79711610059578063d870b7971461030c578063de8b538d14610349578063e757223014610353578063f475409f14610390576100f3565b8063893d20e8146102605780638da5cb5b1461028b578063c29b2f20146102b6578063d5f39488146102e1576100f3565b80634b673d11116100c65780634b673d11146101a05780636ebdac12146101cb5780637acc0b20146101f457806386ae747014610235576100f3565b80632bf32ec3146100f857806330523e7e146101215780633a2a925c1461014c578063459b01c914610175575b600080fd5b34801561010457600080fd5b5061011f600480360381019061011a9190610fb3565b6103bb565b005b34801561012d57600080fd5b506101366103ea565b6040516101439190611079565b60405180910390f35b34801561015857600080fd5b50610173600480360381019061016e91906111d0565b61047c565b005b34801561018157600080fd5b5061018a610574565b604051610197919061132d565b60405180910390f35b3480156101ac57600080fd5b506101b56105cf565b6040516101c2919061135e565b60405180910390f35b3480156101d757600080fd5b506101f260048036038101906101ed9190610fb3565b6105db565b005b34801561020057600080fd5b5061021b60048036038101906102169190610fb3565b610654565b60405161022c959493929190611379565b60405180910390f35b34801561024157600080fd5b5061024a61079a565b6040516102579190611079565b60405180910390f35b34801561026c57600080fd5b50610275610828565b604051610282919061141b565b60405180910390f35b34801561029757600080fd5b506102a0610852565b6040516102ad919061141b565b60405180910390f35b3480156102c257600080fd5b506102cb610878565b6040516102d891906115bf565b60405180910390f35b3480156102ed57600080fd5b506102f6610a86565b604051610303919061141b565b60405180910390f35b34801561031857600080fd5b50610333600480360381019061032e9190610fb3565b610aac565b604051610340919061165e565b60405180910390f35b610351610c1b565b005b34801561035f57600080fd5b5061037a60048036038101906103759190610fb3565b610dfd565b604051610387919061135e565b60405180910390f35b34801561039c57600080fd5b506103a5610e1d565b6040516103b2919061135e565b60405180910390f35b600560010181908060018154018082558091505060019003906000526020600020016000909190919091505550565b6060600080546103f9906116af565b80601f0160208091040260200160405190810160405280929190818152602001828054610425906116af565b80156104725780601f1061044757610100808354040283529160200191610472565b820191906000526020600020905b81548152906001019060200180831161045557829003601f168201915b5050505050905090565b6003600081548092919061048f90611710565b91905055506040518060a0016040528085815260200184815260200183815260200182815260200160035481525060046000600354815260200190815260200160002060008201518160000190805190602001906104ee929190610e97565b50602082015181600101556040820151816002019080519060200190610515929190610e97565b5060608201518160030155608082015181600401559050507fe3b25aa175d4abb6345ae28b959875b745e963873f0d50229dfa7100efd3b04784848484600354604051610566959493929190611379565b60405180910390a150505050565b606060056001018054806020026020016040519081016040528092919081815260200182805480156105c557602002820191906000526020600020905b8154815260200190600101908083116105b1575b5050505050905090565b60058060000154905081565b60005b60056001018054905081101561065057816005600101828154811061060657610605611759565b5b9060005260206000200154141561063d576005600101818154811061062e5761062d611759565b5b90600052602060002001600090555b808061064890611710565b9150506105de565b5050565b6004602052806000526040600020600091509050806000018054610677906116af565b80601f01602080910402602001604051908101604052809291908181526020018280546106a3906116af565b80156106f05780601f106106c5576101008083540402835291602001916106f0565b820191906000526020600020905b8154815290600101906020018083116106d357829003601f168201915b50505050509080600101549080600201805461070b906116af565b80601f0160208091040260200160405190810160405280929190818152602001828054610737906116af565b80156107845780601f1061075957610100808354040283529160200191610784565b820191906000526020600020905b81548152906001019060200180831161076757829003601f168201915b5050505050908060030154908060040154905085565b600080546107a7906116af565b80601f01602080910402602001604051908101604052809291908181526020018280546107d3906116af565b80156108205780601f106107f557610100808354040283529160200191610820565b820191906000526020600020905b81548152906001019060200180831161080357829003601f168201915b505050505081565b6000600160009054906101000a900473ffffffffffffffffffffffffffffffffffffffff16905090565b600160009054906101000a900473ffffffffffffffffffffffffffffffffffffffff1681565b6060600060035467ffffffffffffffff811115610898576108976110a5565b5b6040519080825280602002602001820160405280156108d157816020015b6108be610f1d565b8152602001906001900390816108b65790505b50905060005b600354811015610a7e57600460006001836108f29190611788565b81526020019081526020016000206040518060a001604052908160008201805461091b906116af565b80601f0160208091040260200160405190810160405280929190818152602001828054610947906116af565b80156109945780601f1061096957610100808354040283529160200191610994565b820191906000526020600020905b81548152906001019060200180831161097757829003601f168201915b50505050508152602001600182015481526020016002820180546109b7906116af565b80601f01602080910402602001604051908101604052809291908181526020018280546109e3906116af565b8015610a305780601f10610a0557610100808354040283529160200191610a30565b820191906000526020600020905b815481529060010190602001808311610a1357829003601f168201915b5050505050815260200160038201548152602001600482015481525050828281518110610a6057610a5f611759565b5b60200260200101819052508080610a7690611710565b9150506108d7565b508091505090565b600260009054906101000a900473ffffffffffffffffffffffffffffffffffffffff1681565b610ab4610f1d565b600460008381526020019081526020016000206040518060a0016040529081600082018054610ae2906116af565b80601f0160208091040260200160405190810160405280929190818152602001828054610b0e906116af565b8015610b5b5780601f10610b3057610100808354040283529160200191610b5b565b820191906000526020600020905b815481529060010190602001808311610b3e57829003601f168201915b5050505050815260200160018201548152602001600282018054610b7e906116af565b80601f0160208091040260200160405190810160405280929190818152602001828054610baa906116af565b8015610bf75780601f10610bcc57610100808354040283529160200191610bf7565b820191906000526020600020905b815481529060010190602001808311610bda57829003601f168201915b50505050508152602001600382015481526020016004820154815250509050919050565b600160009054906101000a900473ffffffffffffffffffffffffffffffffffffffff1673ffffffffffffffffffffffffffffffffffffffff166108fc349081150290604051600060405180830381858888f19350505050158015610c83573d6000803e3d6000fd5b5060005b600560010180549050811015610dfa577ffaabebfc042be040ffe38cdbde83eb863656dec8e75ee5bcf5dc88b7fe7415886004600060056001018481548110610cd357610cd2611759565b5b906000526020600020015481526020019081526020016000206000016004600060056001018581548110610d0a57610d09611759565b5b90600052602060002001548152602001908152602001600020600101546004600060056001018681548110610d4257610d41611759565b5b906000526020600020015481526020019081526020016000206002016004600060056001018781548110610d7957610d78611759565b5b90600052602060002001548152602001908152602001600020600301546004600060056001018881548110610db157610db0611759565b5b9060005260206000200154815260200190815260200160002060040154604051610ddf959493929190611873565b60405180910390a18080610df290611710565b915050610c87565b50565b600060046000838152602001908152602001600020600101549050919050565b6000806000905060005b600560010180549050811015610e8f576004600060056001018381548110610e5257610e51611759565b5b906000526020600020015481526020019081526020016000206001015482610e7a9190611788565b91508080610e8790611710565b915050610e27565b508091505090565b828054610ea3906116af565b90600052602060002090601f016020900481019282610ec55760008555610f0c565b82601f10610ede57805160ff1916838001178555610f0c565b82800160010185558215610f0c579182015b82811115610f0b578251825591602001919060010190610ef0565b5b509050610f199190610f4c565b5090565b6040518060a0016040528060608152602001600081526020016060815260200160008152602001600081525090565b5b80821115610f65576000816000905550600101610f4d565b5090565b6000604051905090565b600080fd5b600080fd5b6000819050919050565b610f9081610f7d565b8114610f9b57600080fd5b50565b600081359050610fad81610f87565b92915050565b600060208284031215610fc957610fc8610f73565b5b6000610fd784828501610f9e565b91505092915050565b600081519050919050565b600082825260208201905092915050565b60005b8381101561101a578082015181840152602081019050610fff565b83811115611029576000848401525b50505050565b6000601f19601f8301169050919050565b600061104b82610fe0565b6110558185610feb565b9350611065818560208601610ffc565b61106e8161102f565b840191505092915050565b600060208201905081810360008301526110938184611040565b905092915050565b600080fd5b600080fd5b7f4e487b7100000000000000000000000000000000000000000000000000000000600052604160045260246000fd5b6110dd8261102f565b810181811067ffffffffffffffff821117156110fc576110fb6110a5565b5b80604052505050565b600061110f610f69565b905061111b82826110d4565b919050565b600067ffffffffffffffff82111561113b5761113a6110a5565b5b6111448261102f565b9050602081019050919050565b82818337600083830152505050565b600061117361116e84611120565b611105565b90508281526020810184848401111561118f5761118e6110a0565b5b61119a848285611151565b509392505050565b600082601f8301126111b7576111b661109b565b5b81356111c7848260208601611160565b91505092915050565b600080600080608085870312156111ea576111e9610f73565b5b600085013567ffffffffffffffff81111561120857611207610f78565b5b611214878288016111a2565b945050602061122587828801610f9e565b935050604085013567ffffffffffffffff81111561124657611245610f78565b5b611252878288016111a2565b925050606061126387828801610f9e565b91505092959194509250565b600081519050919050565b600082825260208201905092915050565b6000819050602082019050919050565b6112a481610f7d565b82525050565b60006112b6838361129b565b60208301905092915050565b6000602082019050919050565b60006112da8261126f565b6112e4818561127a565b93506112ef8361128b565b8060005b8381101561132057815161130788826112aa565b9750611312836112c2565b9250506001810190506112f3565b5085935050505092915050565b6000602082019050818103600083015261134781846112cf565b905092915050565b61135881610f7d565b82525050565b6000602082019050611373600083018461134f565b92915050565b600060a08201905081810360008301526113938188611040565b90506113a2602083018761134f565b81810360408301526113b48186611040565b90506113c3606083018561134f565b6113d0608083018461134f565b9695505050505050565b600073ffffffffffffffffffffffffffffffffffffffff82169050919050565b6000611405826113da565b9050919050565b611415816113fa565b82525050565b6000602082019050611430600083018461140c565b92915050565b600081519050919050565b600082825260208201905092915050565b6000819050602082019050919050565b600082825260208201905092915050565b600061147e82610fe0565b6114888185611462565b9350611498818560208601610ffc565b6114a18161102f565b840191505092915050565b600060a08301600083015184820360008601526114c98282611473565b91505060208301516114de602086018261129b565b50604083015184820360408601526114f68282611473565b915050606083015161150b606086018261129b565b50608083015161151e608086018261129b565b508091505092915050565b600061153583836114ac565b905092915050565b6000602082019050919050565b600061155582611436565b61155f8185611441565b93508360208202850161157185611452565b8060005b858110156115ad578484038952815161158e8582611529565b94506115998361153d565b925060208a01995050600181019050611575565b50829750879550505050505092915050565b600060208201905081810360008301526115d9818461154a565b905092915050565b600060a08301600083015184820360008601526115fe8282611473565b9150506020830151611613602086018261129b565b506040830151848203604086015261162b8282611473565b9150506060830151611640606086018261129b565b506080830151611653608086018261129b565b508091505092915050565b6000602082019050818103600083015261167881846115e1565b905092915050565b7f4e487b7100000000000000000000000000000000000000000000000000000000600052602260045260246000fd5b600060028204905060018216806116c757607f821691505b602082108114156116db576116da611680565b5b50919050565b7f4e487b7100000000000000000000000000000000000000000000000000000000600052601160045260246000fd5b600061171b82610f7d565b91507fffffffffffffffffffffffffffffffffffffffffffffffffffffffffffffffff82141561174e5761174d6116e1565b5b600182019050919050565b7f4e487b7100000000000000000000000000000000000000000000000000000000600052603260045260246000fd5b600061179382610f7d565b915061179e83610f7d565b9250827fffffffffffffffffffffffffffffffffffffffffffffffffffffffffffffffff038211156117d3576117d26116e1565b5b828201905092915050565b60008190508160005260206000209050919050565b60008154611800816116af565b61180a8186610feb565b9450600182166000811461182557600181146118375761186a565b60ff198316865260208601935061186a565b611840856117de565b60005b8381101561186257815481890152600182019150602081019050611843565b808801955050505b50505092915050565b600060a082019050818103600083015261188d81886117f3565b905061189c602083018761134f565b81810360408301526118ae81866117f3565b90506118bd606083018561134f565b6118ca608083018461134f565b969550505050505056fea26469706673582212202213d98a9b6ec3b573ca5de02521ba861f7e6970560e882308b783284633d09f64736f6c634300080a0033a264697066735822122027b03f5826ced102f1290ddc321a22cd52bbf0d8e03fe4ba0b61c70d5f8414af64736f6c634300080a0033",
  "devdoc": {
    "kind": "dev",
    "methods": {},
    "version": 1
  },
  "userdoc": {
    "kind": "user",
    "methods": {},
    "version": 1
  },
  "storageLayout": {
    "storage": [
      {
        "astId": 365,
        "contract": "contracts/VendorFactory.sol:VendorFactory",
        "label": "vendor",
        "offset": 0,
        "slot": "0",
        "type": "t_contract(Vendor)360"
      },
      {
        "astId": 369,
        "contract": "contracts/VendorFactory.sol:VendorFactory",
        "label": "list_of_vendors",
        "offset": 0,
        "slot": "1",
        "type": "t_array(t_contract(Vendor)360)dyn_storage"
      }
    ],
    "types": {
      "t_array(t_contract(Vendor)360)dyn_storage": {
        "base": "t_contract(Vendor)360",
        "encoding": "dynamic_array",
        "label": "contract Vendor[]",
        "numberOfBytes": "32"
      },
      "t_contract(Vendor)360": {
        "encoding": "inplace",
        "label": "contract Vendor",
        "numberOfBytes": "20"
      }
    }
  }
}