{
  "address": "0xB7f8BC63BbcaD18155201308C8f3540b07f84F5e",
  "abi": [
    {
      "anonymous": false,
      "inputs": [
        {
          "indexed": false,
          "internalType": "address",
          "name": "vendor_address",
          "type": "address"
        },
        {
          "indexed": false,
          "internalType": "address",
          "name": "owner",
          "type": "address"
        },
        {
          "indexed": false,
          "internalType": "string",
          "name": "vendor_name",
          "type": "string"
        }
      ],
      "name": "VendorCreated",
      "type": "event"
    },
    {
      "inputs": [
        {
          "internalType": "address",
          "name": "_owner",
          "type": "address"
        },
        {
          "internalType": "string",
          "name": "_vendorName",
          "type": "string"
        }
      ],
      "name": "createVendor",
      "outputs": [],
      "stateMutability": "nonpayable",
      "type": "function"
    },
    {
      "inputs": [],
      "name": "getVendors",
      "outputs": [
        {
          "internalType": "contract Vendor[]",
          "name": "",
          "type": "address[]"
        }
      ],
      "stateMutability": "view",
      "type": "function"
    },
    {
      "inputs": [
        {
          "internalType": "uint256",
          "name": "",
          "type": "uint256"
        }
      ],
      "name": "list_of_vendors",
      "outputs": [
        {
          "internalType": "contract Vendor",
          "name": "",
          "type": "address"
        }
      ],
      "stateMutability": "view",
      "type": "function"
    }
  ],
  "transactionHash": "0x1640eca6feeb620e2bd93ee05308a6a43a38b124f0572abfb19d2f3ff55a5918",
  "args": [],
  "numDeployments": 6,
  "solcInputHash": "09bf43a6c5da27c44acfaa2be1ff0bef",
  "bytecode": "0x608060405234801561001057600080fd5b50611acf806100206000396000f3fe60806040523480156200001157600080fd5b5060043610620000465760003560e01c806364bebcc5146200004b57806391452ef4146200006d578063eac310ac14620000a3575b600080fd5b62000055620000c3565b60405162000064919062000447565b60405180910390f35b6200008b6004803603810190620000859190620004ba565b62000153565b6040516200009a9190620004fd565b60405180910390f35b620000c16004803603810190620000bb9190620006c1565b62000193565b005b606060018054806020026020016040519081016040528092919081815260200182805480156200014957602002820191906000526020600020905b8160009054906101000a900473ffffffffffffffffffffffffffffffffffffffff1673ffffffffffffffffffffffffffffffffffffffff1681526020019060010190808311620000fe575b5050505050905090565b600181815481106200016457600080fd5b906000526020600020016000915054906101000a900473ffffffffffffffffffffffffffffffffffffffff1681565b8181604051620001a390620002f1565b620001b0929190620007cb565b604051809103906000f080158015620001cd573d6000803e3d6000fd5b506000806101000a81548173ffffffffffffffffffffffffffffffffffffffff021916908373ffffffffffffffffffffffffffffffffffffffff160217905550600160008054906101000a900473ffffffffffffffffffffffffffffffffffffffff169080600181540180825580915050600190039060005260206000200160009091909190916101000a81548173ffffffffffffffffffffffffffffffffffffffff021916908373ffffffffffffffffffffffffffffffffffffffff1602179055507f72ed0dee50bf115b04570644917f9048aa993a4fb79cb71fb9801f770d7f288a60008054906101000a900473ffffffffffffffffffffffffffffffffffffffff168383604051620002e593929190620007ff565b60405180910390a15050565b611256806200084483390190565b600081519050919050565b600082825260208201905092915050565b6000819050602082019050919050565b600073ffffffffffffffffffffffffffffffffffffffff82169050919050565b6000819050919050565b600062000376620003706200036a846200032b565b6200034b565b6200032b565b9050919050565b60006200038a8262000355565b9050919050565b60006200039e826200037d565b9050919050565b620003b08162000391565b82525050565b6000620003c48383620003a5565b60208301905092915050565b6000602082019050919050565b6000620003ea82620002ff565b620003f681856200030a565b935062000403836200031b565b8060005b838110156200043a5781516200041e8882620003b6565b97506200042b83620003d0565b92505060018101905062000407565b5085935050505092915050565b60006020820190508181036000830152620004638184620003dd565b905092915050565b6000604051905090565b600080fd5b600080fd5b6000819050919050565b62000494816200047f565b8114620004a057600080fd5b50565b600081359050620004b48162000489565b92915050565b600060208284031215620004d357620004d262000475565b5b6000620004e384828501620004a3565b91505092915050565b620004f78162000391565b82525050565b6000602082019050620005146000830184620004ec565b92915050565b600062000527826200032b565b9050919050565b62000539816200051a565b81146200054557600080fd5b50565b60008135905062000559816200052e565b92915050565b600080fd5b600080fd5b6000601f19601f8301169050919050565b7f4e487b7100000000000000000000000000000000000000000000000000000000600052604160045260246000fd5b620005b48262000569565b810181811067ffffffffffffffff82111715620005d657620005d56200057a565b5b80604052505050565b6000620005eb6200046b565b9050620005f98282620005a9565b919050565b600067ffffffffffffffff8211156200061c576200061b6200057a565b5b620006278262000569565b9050602081019050919050565b82818337600083830152505050565b60006200065a6200065484620005fe565b620005df565b90508281526020810184848401111562000679576200067862000564565b5b6200068684828562000634565b509392505050565b600082601f830112620006a657620006a56200055f565b5b8135620006b884826020860162000643565b91505092915050565b60008060408385031215620006db57620006da62000475565b5b6000620006eb8582860162000548565b925050602083013567ffffffffffffffff8111156200070f576200070e6200047a565b5b6200071d858286016200068e565b9150509250929050565b62000732816200051a565b82525050565b600081519050919050565b600082825260208201905092915050565b60005b838110156200077457808201518184015260208101905062000757565b8381111562000784576000848401525b50505050565b6000620007978262000738565b620007a3818562000743565b9350620007b581856020860162000754565b620007c08162000569565b840191505092915050565b6000604082019050620007e2600083018562000727565b8181036020830152620007f681846200078a565b90509392505050565b600060608201905062000816600083018662000727565b62000825602083018562000727565b81810360408301526200083981846200078a565b905094935050505056fe60806040523480156200001157600080fd5b50604051620012563803806200125683398181016040528101906200003791906200038c565b80600090805190602001906200004f929190620000da565b5081600160006101000a81548173ffffffffffffffffffffffffffffffffffffffff021916908373ffffffffffffffffffffffffffffffffffffffff16021790555033600260006101000a81548173ffffffffffffffffffffffffffffffffffffffff021916908373ffffffffffffffffffffffffffffffffffffffff160217905550505062000457565b828054620000e89062000421565b90600052602060002090601f0160209004810192826200010c576000855562000158565b82601f106200012757805160ff191683800117855562000158565b8280016001018555821562000158579182015b82811115620001575782518255916020019190600101906200013a565b5b5090506200016791906200016b565b5090565b5b80821115620001865760008160009055506001016200016c565b5090565b6000604051905090565b600080fd5b600080fd5b600073ffffffffffffffffffffffffffffffffffffffff82169050919050565b6000620001cb826200019e565b9050919050565b620001dd81620001be565b8114620001e957600080fd5b50565b600081519050620001fd81620001d2565b92915050565b600080fd5b600080fd5b6000601f19601f8301169050919050565b7f4e487b7100000000000000000000000000000000000000000000000000000000600052604160045260246000fd5b62000258826200020d565b810181811067ffffffffffffffff821117156200027a57620002796200021e565b5b80604052505050565b60006200028f6200018a565b90506200029d82826200024d565b919050565b600067ffffffffffffffff821115620002c057620002bf6200021e565b5b620002cb826200020d565b9050602081019050919050565b60005b83811015620002f8578082015181840152602081019050620002db565b8381111562000308576000848401525b50505050565b6000620003256200031f84620002a2565b62000283565b90508281526020810184848401111562000344576200034362000208565b5b62000351848285620002d8565b509392505050565b600082601f83011262000371576200037062000203565b5b8151620003838482602086016200030e565b91505092915050565b60008060408385031215620003a657620003a562000194565b5b6000620003b685828601620001ec565b925050602083015167ffffffffffffffff811115620003da57620003d962000199565b5b620003e88582860162000359565b9150509250929050565b7f4e487b7100000000000000000000000000000000000000000000000000000000600052602260045260246000fd5b600060028204905060018216806200043a57607f821691505b60208210811415620004515762000450620003f2565b5b50919050565b610def80620004676000396000f3fe608060405234801561001057600080fd5b50600436106100935760003560e01c8063893d20e811610066578063893d20e8146101235780638da5cb5b14610141578063c29b2f201461015f578063d5f394881461017d578063e75722301461019b57610093565b8063125b0b341461009857806330523e7e146100b45780637acc0b20146100d257806386ae747014610105575b600080fd5b6100b260048036038101906100ad91906108a3565b6101cb565b005b6100bc61025e565b6040516100c9919061099a565b60405180910390f35b6100ec60048036038101906100e791906109bc565b6102f0565b6040516100fc94939291906109f8565b60405180910390f35b61010d6103a8565b60405161011a919061099a565b60405180910390f35b61012b610436565b6040516101389190610a85565b60405180910390f35b610149610460565b6040516101569190610a85565b60405180910390f35b610167610486565b6040516101749190610c1e565b60405180910390f35b610185610602565b6040516101929190610a85565b60405180910390f35b6101b560048036038101906101b091906109bc565b610628565b6040516101c29190610c40565b60405180910390f35b600360008154809291906101de90610c8a565b919050555060405180608001604052808481526020018381526020018281526020016003548152506004600060035481526020019081526020016000206000820151816000019080519060200190610237929190610648565b50602082015181600101556040820151816002015560608201518160030155905050505050565b60606000805461026d90610d02565b80601f016020809104026020016040519081016040528092919081815260200182805461029990610d02565b80156102e65780601f106102bb576101008083540402835291602001916102e6565b820191906000526020600020905b8154815290600101906020018083116102c957829003601f168201915b5050505050905090565b600460205280600052604060002060009150905080600001805461031390610d02565b80601f016020809104026020016040519081016040528092919081815260200182805461033f90610d02565b801561038c5780601f106103615761010080835404028352916020019161038c565b820191906000526020600020905b81548152906001019060200180831161036f57829003601f168201915b5050505050908060010154908060020154908060030154905084565b600080546103b590610d02565b80601f01602080910402602001604051908101604052809291908181526020018280546103e190610d02565b801561042e5780601f106104035761010080835404028352916020019161042e565b820191906000526020600020905b81548152906001019060200180831161041157829003601f168201915b505050505081565b6000600160009054906101000a900473ffffffffffffffffffffffffffffffffffffffff16905090565b600160009054906101000a900473ffffffffffffffffffffffffffffffffffffffff1681565b6060600060035467ffffffffffffffff8111156104a6576104a5610742565b5b6040519080825280602002602001820160405280156104df57816020015b6104cc6106ce565b8152602001906001900390816104c45790505b50905060005b6003548110156105fa57600460006001836105009190610d34565b815260200190815260200160002060405180608001604052908160008201805461052990610d02565b80601f016020809104026020016040519081016040528092919081815260200182805461055590610d02565b80156105a25780601f10610577576101008083540402835291602001916105a2565b820191906000526020600020905b81548152906001019060200180831161058557829003601f168201915b5050505050815260200160018201548152602001600282015481526020016003820154815250508282815181106105dc576105db610d8a565b5b602002602001018190525080806105f290610c8a565b9150506104e5565b508091505090565b600260009054906101000a900473ffffffffffffffffffffffffffffffffffffffff1681565b600060046000838152602001908152602001600020600101549050919050565b82805461065490610d02565b90600052602060002090601f01602090048101928261067657600085556106bd565b82601f1061068f57805160ff19168380011785556106bd565b828001600101855582156106bd579182015b828111156106bc5782518255916020019190600101906106a1565b5b5090506106ca91906106f6565b5090565b6040518060800160405280606081526020016000815260200160008152602001600081525090565b5b8082111561070f5760008160009055506001016106f7565b5090565b6000604051905090565b600080fd5b600080fd5b600080fd5b600080fd5b6000601f19601f8301169050919050565b7f4e487b7100000000000000000000000000000000000000000000000000000000600052604160045260246000fd5b61077a82610731565b810181811067ffffffffffffffff8211171561079957610798610742565b5b80604052505050565b60006107ac610713565b90506107b88282610771565b919050565b600067ffffffffffffffff8211156107d8576107d7610742565b5b6107e182610731565b9050602081019050919050565b82818337600083830152505050565b600061081061080b846107bd565b6107a2565b90508281526020810184848401111561082c5761082b61072c565b5b6108378482856107ee565b509392505050565b600082601f83011261085457610853610727565b5b81356108648482602086016107fd565b91505092915050565b6000819050919050565b6108808161086d565b811461088b57600080fd5b50565b60008135905061089d81610877565b92915050565b6000806000606084860312156108bc576108bb61071d565b5b600084013567ffffffffffffffff8111156108da576108d9610722565b5b6108e68682870161083f565b93505060206108f78682870161088e565b92505060406109088682870161088e565b9150509250925092565b600081519050919050565b600082825260208201905092915050565b60005b8381101561094c578082015181840152602081019050610931565b8381111561095b576000848401525b50505050565b600061096c82610912565b610976818561091d565b935061098681856020860161092e565b61098f81610731565b840191505092915050565b600060208201905081810360008301526109b48184610961565b905092915050565b6000602082840312156109d2576109d161071d565b5b60006109e08482850161088e565b91505092915050565b6109f28161086d565b82525050565b60006080820190508181036000830152610a128187610961565b9050610a2160208301866109e9565b610a2e60408301856109e9565b610a3b60608301846109e9565b95945050505050565b600073ffffffffffffffffffffffffffffffffffffffff82169050919050565b6000610a6f82610a44565b9050919050565b610a7f81610a64565b82525050565b6000602082019050610a9a6000830184610a76565b92915050565b600081519050919050565b600082825260208201905092915050565b6000819050602082019050919050565b600082825260208201905092915050565b6000610ae882610912565b610af28185610acc565b9350610b0281856020860161092e565b610b0b81610731565b840191505092915050565b610b1f8161086d565b82525050565b60006080830160008301518482036000860152610b428282610add565b9150506020830151610b576020860182610b16565b506040830151610b6a6040860182610b16565b506060830151610b7d6060860182610b16565b508091505092915050565b6000610b948383610b25565b905092915050565b6000602082019050919050565b6000610bb482610aa0565b610bbe8185610aab565b935083602082028501610bd085610abc565b8060005b85811015610c0c5784840389528151610bed8582610b88565b9450610bf883610b9c565b925060208a01995050600181019050610bd4565b50829750879550505050505092915050565b60006020820190508181036000830152610c388184610ba9565b905092915050565b6000602082019050610c5560008301846109e9565b92915050565b7f4e487b7100000000000000000000000000000000000000000000000000000000600052601160045260246000fd5b6000610c958261086d565b91507fffffffffffffffffffffffffffffffffffffffffffffffffffffffffffffffff821415610cc857610cc7610c5b565b5b600182019050919050565b7f4e487b7100000000000000000000000000000000000000000000000000000000600052602260045260246000fd5b60006002820490506001821680610d1a57607f821691505b60208210811415610d2e57610d2d610cd3565b5b50919050565b6000610d3f8261086d565b9150610d4a8361086d565b9250827fffffffffffffffffffffffffffffffffffffffffffffffffffffffffffffffff03821115610d7f57610d7e610c5b565b5b828201905092915050565b7f4e487b7100000000000000000000000000000000000000000000000000000000600052603260045260246000fdfea2646970667358221220430711ccc6b0e52cae2dd1d54298c46b72f3532e4cd53620bad3ebca5840261864736f6c634300080a0033a26469706673582212204b0993a5f7a1d4cca64934fe484cf808668e10b9aa54ec65c8c8b57f702966a264736f6c634300080a0033",
  "devdoc": {
    "kind": "dev",
    "methods": {},
    "version": 1
  },
  "userdoc": {
    "kind": "user",
    "methods": {},
    "version": 1
  },
  "storageLayout": {
    "storage": [
      {
        "astId": 146,
        "contract": "contracts/VendorFactory.sol:VendorFactory",
        "label": "vendor",
        "offset": 0,
        "slot": "0",
        "type": "t_contract(Vendor)141"
      },
      {
        "astId": 150,
        "contract": "contracts/VendorFactory.sol:VendorFactory",
        "label": "list_of_vendors",
        "offset": 0,
        "slot": "1",
        "type": "t_array(t_contract(Vendor)141)dyn_storage"
      }
    ],
    "types": {
      "t_array(t_contract(Vendor)141)dyn_storage": {
        "base": "t_contract(Vendor)141",
        "encoding": "dynamic_array",
        "label": "contract Vendor[]",
        "numberOfBytes": "32"
      },
      "t_contract(Vendor)141": {
        "encoding": "inplace",
        "label": "contract Vendor",
        "numberOfBytes": "20"
      }
    }
  }
}